{
  "_format": "hh-sol-artifact-1",
  "contractName": "DollarAuction",
  "sourceName": "contracts/DollarAuction.sol",
  "abi": [
    {
      "inputs": [
        {
          "internalType": "address",
          "name": "_defaultAdmin",
          "type": "address"
        },
        {
          "internalType": "address",
          "name": "_workerAddress",
          "type": "address"
        },
        {
          "internalType": "address",
          "name": "_paradoxTokenAddress",
          "type": "address"
        }
      ],
      "stateMutability": "nonpayable",
      "type": "constructor"
    },
    {
      "inputs": [],
      "name": "AccessControlBadConfirmation",
      "type": "error"
    },
    {
      "inputs": [
        {
          "internalType": "address",
          "name": "account",
          "type": "address"
        },
        {
          "internalType": "bytes32",
          "name": "neededRole",
          "type": "bytes32"
        }
      ],
      "name": "AccessControlUnauthorizedAccount",
      "type": "error"
    },
    {
      "inputs": [],
      "name": "ReentrancyGuardReentrantCall",
      "type": "error"
    },
    {
      "anonymous": false,
      "inputs": [
        {
          "indexed": false,
          "internalType": "uint256",
          "name": "roundId",
          "type": "uint256"
        },
        {
          "indexed": false,
          "internalType": "address",
          "name": "bidder",
          "type": "address"
        },
        {
          "indexed": false,
          "internalType": "uint256",
          "name": "amount",
          "type": "uint256"
        }
      ],
      "name": "BidCreated",
      "type": "event"
    },
    {
      "anonymous": false,
      "inputs": [
        {
          "indexed": false,
          "internalType": "uint256",
          "name": "roundId",
          "type": "uint256"
        },
        {
          "indexed": false,
          "internalType": "address",
          "name": "to",
          "type": "address"
        },
        {
          "indexed": false,
          "internalType": "uint256",
          "name": "amount",
          "type": "uint256"
        }
      ],
      "name": "Refund",
      "type": "event"
    },
    {
      "anonymous": false,
      "inputs": [
        {
          "indexed": true,
          "internalType": "bytes32",
          "name": "role",
          "type": "bytes32"
        },
        {
          "indexed": true,
          "internalType": "bytes32",
          "name": "previousAdminRole",
          "type": "bytes32"
        },
        {
          "indexed": true,
          "internalType": "bytes32",
          "name": "newAdminRole",
          "type": "bytes32"
        }
      ],
      "name": "RoleAdminChanged",
      "type": "event"
    },
    {
      "anonymous": false,
      "inputs": [
        {
          "indexed": true,
          "internalType": "bytes32",
          "name": "role",
          "type": "bytes32"
        },
        {
          "indexed": true,
          "internalType": "address",
          "name": "account",
          "type": "address"
        },
        {
          "indexed": true,
          "internalType": "address",
          "name": "sender",
          "type": "address"
        }
      ],
      "name": "RoleGranted",
      "type": "event"
    },
    {
      "anonymous": false,
      "inputs": [
        {
          "indexed": true,
          "internalType": "bytes32",
          "name": "role",
          "type": "bytes32"
        },
        {
          "indexed": true,
          "internalType": "address",
          "name": "account",
          "type": "address"
        },
        {
          "indexed": true,
          "internalType": "address",
          "name": "sender",
          "type": "address"
        }
      ],
      "name": "RoleRevoked",
      "type": "event"
    },
    {
      "anonymous": false,
      "inputs": [
        {
          "indexed": false,
          "internalType": "uint256",
          "name": "roundId",
          "type": "uint256"
        },
        {
          "indexed": false,
          "internalType": "uint256",
          "name": "roundPrize",
          "type": "uint256"
        },
        {
          "indexed": false,
          "internalType": "uint256",
          "name": "roundEndTime",
          "type": "uint256"
        }
      ],
      "name": "RoundCreated",
      "type": "event"
    },
    {
      "anonymous": false,
      "inputs": [
        {
          "indexed": false,
          "internalType": "uint256",
          "name": "roundId",
          "type": "uint256"
        },
        {
          "indexed": false,
          "internalType": "address",
          "name": "winner",
          "type": "address"
        },
        {
          "indexed": false,
          "internalType": "uint256",
          "name": "amount",
          "type": "uint256"
        },
        {
          "indexed": false,
          "internalType": "uint256",
          "name": "prize",
          "type": "uint256"
        }
      ],
      "name": "RoundEnded",
      "type": "event"
    },
    {
      "stateMutability": "payable",
      "type": "fallback"
    },
    {
      "inputs": [],
      "name": "DEFAULT_ADMIN_ROLE",
      "outputs": [
        {
          "internalType": "bytes32",
          "name": "",
          "type": "bytes32"
        }
      ],
      "stateMutability": "view",
      "type": "function"
    },
    {
      "inputs": [],
      "name": "WORKER_ROLE",
      "outputs": [
        {
          "internalType": "bytes32",
          "name": "",
          "type": "bytes32"
        }
      ],
      "stateMutability": "view",
      "type": "function"
    },
    {
      "inputs": [
        {
          "internalType": "uint256",
          "name": "value",
          "type": "uint256"
        }
      ],
      "name": "bid",
      "outputs": [],
      "stateMutability": "nonpayable",
      "type": "function"
    },
    {
      "inputs": [],
      "name": "bidStep",
      "outputs": [
        {
          "internalType": "uint256",
          "name": "",
          "type": "uint256"
        }
      ],
      "stateMutability": "view",
      "type": "function"
    },
    {
      "inputs": [],
      "name": "endRoundAndCreateNewRound",
      "outputs": [],
      "stateMutability": "nonpayable",
      "type": "function"
    },
    {
      "inputs": [
        {
          "internalType": "bytes32",
          "name": "role",
          "type": "bytes32"
        }
      ],
      "name": "getRoleAdmin",
      "outputs": [
        {
          "internalType": "bytes32",
          "name": "",
          "type": "bytes32"
        }
      ],
      "stateMutability": "view",
      "type": "function"
    },
    {
      "inputs": [
        {
          "internalType": "bytes32",
          "name": "role",
          "type": "bytes32"
        },
        {
          "internalType": "address",
          "name": "account",
          "type": "address"
        }
      ],
      "name": "grantRole",
      "outputs": [],
      "stateMutability": "nonpayable",
      "type": "function"
    },
    {
      "inputs": [
        {
          "internalType": "bytes32",
          "name": "role",
          "type": "bytes32"
        },
        {
          "internalType": "address",
          "name": "account",
          "type": "address"
        }
      ],
      "name": "hasRole",
      "outputs": [
        {
          "internalType": "bool",
          "name": "",
          "type": "bool"
        }
      ],
      "stateMutability": "view",
      "type": "function"
    },
    {
      "inputs": [],
      "name": "isActive",
      "outputs": [
        {
          "internalType": "bool",
          "name": "",
          "type": "bool"
        }
      ],
      "stateMutability": "view",
      "type": "function"
    },
    {
      "inputs": [],
      "name": "minRoundDuration",
      "outputs": [
        {
          "internalType": "uint256",
          "name": "",
          "type": "uint256"
        }
      ],
      "stateMutability": "view",
      "type": "function"
    },
    {
      "inputs": [],
      "name": "minRoundPrize",
      "outputs": [
        {
          "internalType": "uint256",
          "name": "",
          "type": "uint256"
        }
      ],
      "stateMutability": "view",
      "type": "function"
    },
    {
      "inputs": [],
      "name": "nextRoundPrize",
      "outputs": [
        {
          "internalType": "uint256",
          "name": "",
          "type": "uint256"
        }
      ],
      "stateMutability": "view",
      "type": "function"
    },
    {
      "inputs": [],
      "name": "nextRoundPrizePercent",
      "outputs": [
        {
          "internalType": "uint256",
          "name": "",
          "type": "uint256"
        }
      ],
      "stateMutability": "view",
      "type": "function"
    },
    {
      "inputs": [],
      "name": "numberOfBids",
      "outputs": [
        {
          "internalType": "uint256",
          "name": "",
          "type": "uint256"
        }
      ],
      "stateMutability": "view",
      "type": "function"
    },
    {
      "inputs": [
        {
          "internalType": "bytes32",
          "name": "role",
          "type": "bytes32"
        },
        {
          "internalType": "address",
          "name": "callerConfirmation",
          "type": "address"
        }
      ],
      "name": "renounceRole",
      "outputs": [],
      "stateMutability": "nonpayable",
      "type": "function"
    },
    {
      "inputs": [
        {
          "internalType": "bytes32",
          "name": "role",
          "type": "bytes32"
        },
        {
          "internalType": "address",
          "name": "account",
          "type": "address"
        }
      ],
      "name": "revokeRole",
      "outputs": [],
      "stateMutability": "nonpayable",
      "type": "function"
    },
    {
      "inputs": [],
      "name": "roundEndTime",
      "outputs": [
        {
          "internalType": "uint256",
          "name": "",
          "type": "uint256"
        }
      ],
      "stateMutability": "view",
      "type": "function"
    },
    {
      "inputs": [],
      "name": "roundId",
      "outputs": [
        {
          "internalType": "uint256",
          "name": "",
          "type": "uint256"
        }
      ],
      "stateMutability": "view",
      "type": "function"
    },
    {
      "inputs": [],
      "name": "roundPrize",
      "outputs": [
        {
          "internalType": "uint256",
          "name": "",
          "type": "uint256"
        }
      ],
      "stateMutability": "view",
      "type": "function"
    },
    {
      "inputs": [],
      "name": "roundSecondBid",
      "outputs": [
        {
          "internalType": "uint256",
          "name": "",
          "type": "uint256"
        }
      ],
      "stateMutability": "view",
      "type": "function"
    },
    {
      "inputs": [],
      "name": "roundSecondPosition",
      "outputs": [
        {
          "internalType": "address",
          "name": "",
          "type": "address"
        }
      ],
      "stateMutability": "view",
      "type": "function"
    },
    {
      "inputs": [],
      "name": "roundWinner",
      "outputs": [
        {
          "internalType": "address",
          "name": "",
          "type": "address"
        }
      ],
      "stateMutability": "view",
      "type": "function"
    },
    {
      "inputs": [],
      "name": "roundWinnerBid",
      "outputs": [
        {
          "internalType": "uint256",
          "name": "",
          "type": "uint256"
        }
      ],
      "stateMutability": "view",
      "type": "function"
    },
    {
      "inputs": [],
      "name": "start",
      "outputs": [],
      "stateMutability": "nonpayable",
      "type": "function"
    },
    {
      "inputs": [
        {
          "internalType": "bytes4",
          "name": "interfaceId",
          "type": "bytes4"
        }
      ],
      "name": "supportsInterface",
      "outputs": [
        {
          "internalType": "bool",
          "name": "",
          "type": "bool"
        }
      ],
      "stateMutability": "view",
      "type": "function"
    },
    {
      "inputs": [],
      "name": "timeStep",
      "outputs": [
        {
          "internalType": "uint256",
          "name": "",
          "type": "uint256"
        }
      ],
      "stateMutability": "view",
      "type": "function"
    },
    {
      "inputs": [],
      "name": "token",
      "outputs": [
        {
          "internalType": "contract Paradox",
          "name": "",
          "type": "address"
        }
      ],
      "stateMutability": "view",
      "type": "function"
    },
    {
      "inputs": [
        {
          "internalType": "uint256",
          "name": "_bidStep",
          "type": "uint256"
        },
        {
          "internalType": "uint256",
          "name": "_timeStep",
          "type": "uint256"
        },
        {
          "internalType": "uint256",
          "name": "_nextRoundPrizePercent",
          "type": "uint256"
        },
        {
          "internalType": "uint256",
          "name": "_minRoundPrize",
          "type": "uint256"
        },
        {
          "internalType": "uint256",
          "name": "_minRoundDuration",
          "type": "uint256"
        }
      ],
      "name": "updateConfig",
      "outputs": [],
      "stateMutability": "nonpayable",
      "type": "function"
    },
    {
      "inputs": [
        {
          "internalType": "address",
          "name": "to",
          "type": "address"
        }
      ],
      "name": "withdraw",
      "outputs": [],
      "stateMutability": "nonpayable",
      "type": "function"
    },
    {
      "stateMutability": "payable",
      "type": "receive"
    }
  ],
  "bytecode": "0x60a0604052683635c9adc5dea0000060025560786003556103e8600455690a968163f0a57b400000600555611c2060065534801561003c57600080fd5b5060405161253e38038061253e833981810160405281019061005e91906102b8565b600180819055506100786000801b846100e660201b60201c565b506100a97ff1b411d6abb365480ac902cc153c45e9ded5847a2265ce6d01945d253edb6bc7836100e660201b60201c565b508073ffffffffffffffffffffffffffffffffffffffff1660808173ffffffffffffffffffffffffffffffffffffffff168152505050505061030b565b60006100f883836101e360201b60201c565b6101d857600160008085815260200190815260200160002060000160008473ffffffffffffffffffffffffffffffffffffffff1673ffffffffffffffffffffffffffffffffffffffff16815260200190815260200160002060006101000a81548160ff02191690831515021790555061017561024d60201b60201c565b73ffffffffffffffffffffffffffffffffffffffff168273ffffffffffffffffffffffffffffffffffffffff16847f2f8788117e7eff1d82e926ec794901d17c78024a50270940304540a733656f0d60405160405180910390a4600190506101dd565b600090505b92915050565b600080600084815260200190815260200160002060000160008373ffffffffffffffffffffffffffffffffffffffff1673ffffffffffffffffffffffffffffffffffffffff16815260200190815260200160002060009054906101000a900460ff16905092915050565b600033905090565b600080fd5b600073ffffffffffffffffffffffffffffffffffffffff82169050919050565b60006102858261025a565b9050919050565b6102958161027a565b81146102a057600080fd5b50565b6000815190506102b28161028c565b92915050565b6000806000606084860312156102d1576102d0610255565b5b60006102df868287016102a3565b93505060206102f0868287016102a3565b9250506040610301868287016102a3565b9150509250925092565b6080516121fc6103426000396000818161093701528181610a1401528181610b25015281816111ae015261140901526121fc6000f3fe6080604052600436106101c65760003560e01c80638cd221c9116100f7578063bf05a22e11610095578063e40205d611610064578063e40205d614610612578063e9ecc5651461063d578063ea051b5114610654578063fc0c546a1461067f576101c7565b8063bf05a22e14610568578063d25a058714610593578063d547741f146105be578063dc6676f8146105e7576101c7565b8063a217fddf116100d1578063a217fddf146104d2578063a823a60d146104fd578063b232c18d14610528578063be9a655514610551576101c7565b80638cd221c91461043f5780638fe421471461046a57806391d1485414610495576101c7565b806326a46c7311610164578063454a2ab31161013e578063454a2ab31461039757806351cff8d9146103c05780635d849a7b146103e9578063634252dc14610414576101c7565b806326a46c731461031a5780632f2ff15d1461034557806336568abe1461036e576101c7565b80631770e96a116101a05780631770e96a1461025c57806317d531fc1461028757806322f3e2d4146102b2578063248a9ca3146102dd576101c7565b806301ffc9a7146101c95780631502906d1461020657806316ec07f614610231576101c7565b5b005b3480156101d557600080fd5b506101f060048036038101906101eb9190611791565b6106aa565b6040516101fd91906117d9565b60405180910390f35b34801561021257600080fd5b5061021b610724565b604051610228919061180d565b60405180910390f35b34801561023d57600080fd5b5061024661072a565b604051610253919061180d565b60405180910390f35b34801561026857600080fd5b50610271610730565b60405161027e919061180d565b60405180910390f35b34801561029357600080fd5b5061029c610736565b6040516102a9919061180d565b60405180910390f35b3480156102be57600080fd5b506102c761073c565b6040516102d491906117d9565b60405180910390f35b3480156102e957600080fd5b5061030460048036038101906102ff919061185e565b610749565b604051610311919061189a565b60405180910390f35b34801561032657600080fd5b5061032f610768565b60405161033c919061180d565b60405180910390f35b34801561035157600080fd5b5061036c60048036038101906103679190611913565b61076e565b005b34801561037a57600080fd5b5061039560048036038101906103909190611913565b610790565b005b3480156103a357600080fd5b506103be60048036038101906103b9919061197f565b61080b565b005b3480156103cc57600080fd5b506103e760048036038101906103e291906119ac565b610d80565b005b3480156103f557600080fd5b506103fe610e97565b60405161040b919061180d565b60405180910390f35b34801561042057600080fd5b50610429610e9d565b604051610436919061189a565b60405180910390f35b34801561044b57600080fd5b50610454610ec1565b604051610461919061180d565b60405180910390f35b34801561047657600080fd5b5061047f610ec7565b60405161048c919061180d565b60405180910390f35b3480156104a157600080fd5b506104bc60048036038101906104b79190611913565b610ecd565b6040516104c991906117d9565b60405180910390f35b3480156104de57600080fd5b506104e7610f37565b6040516104f4919061189a565b60405180910390f35b34801561050957600080fd5b50610512610f3e565b60405161051f91906119e8565b60405180910390f35b34801561053457600080fd5b5061054f600480360381019061054a9190611a03565b610f64565b005b34801561055d57600080fd5b50610566610fb9565b005b34801561057457600080fd5b5061057d6110aa565b60405161058a919061180d565b60405180910390f35b34801561059f57600080fd5b506105a86110b0565b6040516105b5919061180d565b60405180910390f35b3480156105ca57600080fd5b506105e560048036038101906105e09190611913565b6110b6565b005b3480156105f357600080fd5b506105fc6110d8565b604051610609919061180d565b60405180910390f35b34801561061e57600080fd5b506106276110de565b604051610634919061180d565b60405180910390f35b34801561064957600080fd5b506106526110e4565b005b34801561066057600080fd5b506106696113e1565b60405161067691906119e8565b60405180910390f35b34801561068b57600080fd5b50610694611407565b6040516106a19190611add565b60405180910390f35b60007f7965db0b000000000000000000000000000000000000000000000000000000007bffffffffffffffffffffffffffffffffffffffffffffffffffffffff1916827bffffffffffffffffffffffffffffffffffffffffffffffffffffffff1916148061071d575061071c8261142b565b5b9050919050565b60035481565b60025481565b600a5481565b600b5481565b6000600954421115905090565b6000806000838152602001908152602001600020600101549050919050565b60065481565b61077782610749565b61078081611495565b61078a83836114a9565b50505050565b61079861159a565b73ffffffffffffffffffffffffffffffffffffffff168173ffffffffffffffffffffffffffffffffffffffff16146107fc576040517f6697b23200000000000000000000000000000000000000000000000000000000815260040160405180910390fd5b61080682826115a2565b505050565b61081361073c565b610852576040517f08c379a000000000000000000000000000000000000000000000000000000000815260040161084990611b55565b60405180910390fd5b600d60009054906101000a900473ffffffffffffffffffffffffffffffffffffffff1673ffffffffffffffffffffffffffffffffffffffff163373ffffffffffffffffffffffffffffffffffffffff16036108e2576040517f08c379a00000000000000000000000000000000000000000000000000000000081526004016108d990611bc1565b60405180910390fd5b600254600c546108f29190611c10565b811015610934576040517f08c379a000000000000000000000000000000000000000000000000000000000815260040161092b90611cb6565b60405180910390fd5b807f000000000000000000000000000000000000000000000000000000000000000073ffffffffffffffffffffffffffffffffffffffff1663dd62ed3e33306040518363ffffffff1660e01b8152600401610990929190611cd6565b602060405180830381865afa1580156109ad573d6000803e3d6000fd5b505050506040513d601f19601f820116820180604052508101906109d19190611d14565b1015610a12576040517f08c379a0000000000000000000000000000000000000000000000000000000008152600401610a0990611d8d565b60405180910390fd5b7f000000000000000000000000000000000000000000000000000000000000000073ffffffffffffffffffffffffffffffffffffffff166379cc679033836040518363ffffffff1660e01b8152600401610a6d929190611dad565b600060405180830381600087803b158015610a8757600080fd5b505af1158015610a9b573d6000803e3d6000fd5b50505050600073ffffffffffffffffffffffffffffffffffffffff16600f60009054906101000a900473ffffffffffffffffffffffffffffffffffffffff1673ffffffffffffffffffffffffffffffffffffffff1614610c33576000612710600454612710610b0a9190611dd6565b600e54610b179190611e0a565b610b219190611e7b565b90507f000000000000000000000000000000000000000000000000000000000000000073ffffffffffffffffffffffffffffffffffffffff166340c10f19600f60009054906101000a900473ffffffffffffffffffffffffffffffffffffffff16836040518363ffffffff1660e01b8152600401610ba0929190611dad565b600060405180830381600087803b158015610bba57600080fd5b505af1158015610bce573d6000803e3d6000fd5b505050507f21e12a7cad0da5928167e1084ea4d5fdf8d9af66657a2543a9ac76a0ca081477600754600f60009054906101000a900473ffffffffffffffffffffffffffffffffffffffff1683604051610c2993929190611eac565b60405180910390a1505b600b6000815480929190610c4690611ee3565b9190505550600d60009054906101000a900473ffffffffffffffffffffffffffffffffffffffff16600f60006101000a81548173ffffffffffffffffffffffffffffffffffffffff021916908373ffffffffffffffffffffffffffffffffffffffff160217905550600c54600e8190555033600d60006101000a81548173ffffffffffffffffffffffffffffffffffffffff021916908373ffffffffffffffffffffffffffffffffffffffff16021790555080600c8190555060035460096000828254610d139190611c10565b9250508190555060045481610d289190611e0a565b600a6000828254610d399190611c10565b925050819055507f0bda7f7cf42011b27b057b83f3bf21f963b84eb591478e6b413b18d7872cd37a6007543383604051610d7593929190611eac565b60405180910390a150565b610d88611694565b6000801b610d9581611495565b60004711610dd8576040517f08c379a0000000000000000000000000000000000000000000000000000000008152600401610dcf90611f77565b60405180910390fd5b600082905060008173ffffffffffffffffffffffffffffffffffffffff1647604051610e0390611fc8565b60006040518083038185875af1925050503d8060008114610e40576040519150601f19603f3d011682016040523d82523d6000602084013e610e45565b606091505b5050905080610e89576040517f08c379a0000000000000000000000000000000000000000000000000000000008152600401610e8090612029565b60405180910390fd5b505050610e946116da565b50565b600e5481565b7ff1b411d6abb365480ac902cc153c45e9ded5847a2265ce6d01945d253edb6bc781565b60075481565b60045481565b600080600084815260200190815260200160002060000160008373ffffffffffffffffffffffffffffffffffffffff1673ffffffffffffffffffffffffffffffffffffffff16815260200190815260200160002060009054906101000a900460ff16905092915050565b6000801b81565b600d60009054906101000a900473ffffffffffffffffffffffffffffffffffffffff1681565b7ff1b411d6abb365480ac902cc153c45e9ded5847a2265ce6d01945d253edb6bc7610f8e81611495565b8560028190555084600381905550836004819055508260058190555081600681905550505050505050565b7ff1b411d6abb365480ac902cc153c45e9ded5847a2265ce6d01945d253edb6bc7610fe381611495565b600060075414611028576040517f08c379a000000000000000000000000000000000000000000000000000000000815260040161101f90612095565b60405180910390fd5b6007600081548092919061103b90611ee3565b9190505550600554600881905550600654426110579190611c10565b600981905550600554600a819055507f68e7b09ec44e876e76ff05157850e3261aa63a8680fe21a2ba93dcbb2b09f58f60075460085460095460405161109f939291906120b5565b60405180910390a150565b60055481565b60085481565b6110bf82610749565b6110c881611495565b6110d283836115a2565b50505050565b600c5481565b60095481565b7ff1b411d6abb365480ac902cc153c45e9ded5847a2265ce6d01945d253edb6bc761110e81611495565b61111661073c565b15611156576040517f08c379a000000000000000000000000000000000000000000000000000000000815260040161114d90612138565b60405180910390fd5b600073ffffffffffffffffffffffffffffffffffffffff16600d60009054906101000a900473ffffffffffffffffffffffffffffffffffffffff1673ffffffffffffffffffffffffffffffffffffffff161461125e577f000000000000000000000000000000000000000000000000000000000000000073ffffffffffffffffffffffffffffffffffffffff166340c10f19600d60009054906101000a900473ffffffffffffffffffffffffffffffffffffffff166008546040518363ffffffff1660e01b815260040161122b929190611dad565b600060405180830381600087803b15801561124557600080fd5b505af1158015611259573d6000803e3d6000fd5b505050505b7f27204cd9208d6f69d2ec3166c5141707a7e6d8907a43ec5dfd33eb4f4f8ed533600754600d60009054906101000a900473ffffffffffffffffffffffffffffffffffffffff16600c546008546040516112bb9493929190612158565b60405180910390a1600760008154809291906112d690611ee3565b9190505550600a54600881905550600654426112f29190611c10565b6009819055506000600d60006101000a81548173ffffffffffffffffffffffffffffffffffffffff021916908373ffffffffffffffffffffffffffffffffffffffff1602179055506000600c819055506000600f60006101000a81548173ffffffffffffffffffffffffffffffffffffffff021916908373ffffffffffffffffffffffffffffffffffffffff1602179055506000600e81905550600554600a819055506000600b819055507f68e7b09ec44e876e76ff05157850e3261aa63a8680fe21a2ba93dcbb2b09f58f6007546008546009546040516113d6939291906120b5565b60405180910390a150565b600f60009054906101000a900473ffffffffffffffffffffffffffffffffffffffff1681565b7f000000000000000000000000000000000000000000000000000000000000000081565b60007f01ffc9a7000000000000000000000000000000000000000000000000000000007bffffffffffffffffffffffffffffffffffffffffffffffffffffffff1916827bffffffffffffffffffffffffffffffffffffffffffffffffffffffff1916149050919050565b6114a6816114a161159a565b6116e3565b50565b60006114b58383610ecd565b61158f57600160008085815260200190815260200160002060000160008473ffffffffffffffffffffffffffffffffffffffff1673ffffffffffffffffffffffffffffffffffffffff16815260200190815260200160002060006101000a81548160ff02191690831515021790555061152c61159a565b73ffffffffffffffffffffffffffffffffffffffff168273ffffffffffffffffffffffffffffffffffffffff16847f2f8788117e7eff1d82e926ec794901d17c78024a50270940304540a733656f0d60405160405180910390a460019050611594565b600090505b92915050565b600033905090565b60006115ae8383610ecd565b1561168957600080600085815260200190815260200160002060000160008473ffffffffffffffffffffffffffffffffffffffff1673ffffffffffffffffffffffffffffffffffffffff16815260200190815260200160002060006101000a81548160ff02191690831515021790555061162661159a565b73ffffffffffffffffffffffffffffffffffffffff168273ffffffffffffffffffffffffffffffffffffffff16847ff6391f5c32d9c69d2a47ea670b442974b53935d1edc7fd64eb21e047a839171b60405160405180910390a46001905061168e565b600090505b92915050565b6002600154036116d0576040517f3ee5aeb500000000000000000000000000000000000000000000000000000000815260040160405180910390fd5b6002600181905550565b60018081905550565b6116ed8282610ecd565b6117305780826040517fe2517d3f00000000000000000000000000000000000000000000000000000000815260040161172792919061219d565b60405180910390fd5b5050565b600080fd5b60007fffffffff0000000000000000000000000000000000000000000000000000000082169050919050565b61176e81611739565b811461177957600080fd5b50565b60008135905061178b81611765565b92915050565b6000602082840312156117a7576117a6611734565b5b60006117b58482850161177c565b91505092915050565b60008115159050919050565b6117d3816117be565b82525050565b60006020820190506117ee60008301846117ca565b92915050565b6000819050919050565b611807816117f4565b82525050565b600060208201905061182260008301846117fe565b92915050565b6000819050919050565b61183b81611828565b811461184657600080fd5b50565b60008135905061185881611832565b92915050565b60006020828403121561187457611873611734565b5b600061188284828501611849565b91505092915050565b61189481611828565b82525050565b60006020820190506118af600083018461188b565b92915050565b600073ffffffffffffffffffffffffffffffffffffffff82169050919050565b60006118e0826118b5565b9050919050565b6118f0816118d5565b81146118fb57600080fd5b50565b60008135905061190d816118e7565b92915050565b6000806040838503121561192a57611929611734565b5b600061193885828601611849565b9250506020611949858286016118fe565b9150509250929050565b61195c816117f4565b811461196757600080fd5b50565b60008135905061197981611953565b92915050565b60006020828403121561199557611994611734565b5b60006119a38482850161196a565b91505092915050565b6000602082840312156119c2576119c1611734565b5b60006119d0848285016118fe565b91505092915050565b6119e2816118d5565b82525050565b60006020820190506119fd60008301846119d9565b92915050565b600080600080600060a08688031215611a1f57611a1e611734565b5b6000611a2d8882890161196a565b9550506020611a3e8882890161196a565b9450506040611a4f8882890161196a565b9350506060611a608882890161196a565b9250506080611a718882890161196a565b9150509295509295909350565b6000819050919050565b6000611aa3611a9e611a99846118b5565b611a7e565b6118b5565b9050919050565b6000611ab582611a88565b9050919050565b6000611ac782611aaa565b9050919050565b611ad781611abc565b82525050565b6000602082019050611af26000830184611ace565b92915050565b600082825260208201905092915050565b7f526f756e6420656e646564000000000000000000000000000000000000000000600082015250565b6000611b3f600b83611af8565b9150611b4a82611b09565b602082019050919050565b60006020820190508181036000830152611b6e81611b32565b9050919050565b7f43616e6e6f742074616b65206f76657220796f757273656c6600000000000000600082015250565b6000611bab601983611af8565b9150611bb682611b75565b602082019050919050565b60006020820190508181036000830152611bda81611b9e565b9050919050565b7f4e487b7100000000000000000000000000000000000000000000000000000000600052601160045260246000fd5b6000611c1b826117f4565b9150611c26836117f4565b9250828201905080821115611c3e57611c3d611be1565b5b92915050565b7f4d75737420626964206174206c656173742031206269642073746570206d6f7260008201527f65207468616e206d61782062696464696e670000000000000000000000000000602082015250565b6000611ca0603283611af8565b9150611cab82611c44565b604082019050919050565b60006020820190508181036000830152611ccf81611c93565b9050919050565b6000604082019050611ceb60008301856119d9565b611cf860208301846119d9565b9392505050565b600081519050611d0e81611953565b92915050565b600060208284031215611d2a57611d29611734565b5b6000611d3884828501611cff565b91505092915050565b7f4e6f7420616c6c6f77616e636500000000000000000000000000000000000000600082015250565b6000611d77600d83611af8565b9150611d8282611d41565b602082019050919050565b60006020820190508181036000830152611da681611d6a565b9050919050565b6000604082019050611dc260008301856119d9565b611dcf60208301846117fe565b9392505050565b6000611de1826117f4565b9150611dec836117f4565b9250828203905081811115611e0457611e03611be1565b5b92915050565b6000611e15826117f4565b9150611e20836117f4565b9250828202611e2e816117f4565b91508282048414831517611e4557611e44611be1565b5b5092915050565b7f4e487b7100000000000000000000000000000000000000000000000000000000600052601260045260246000fd5b6000611e86826117f4565b9150611e91836117f4565b925082611ea157611ea0611e4c565b5b828204905092915050565b6000606082019050611ec160008301866117fe565b611ece60208301856119d9565b611edb60408301846117fe565b949350505050565b6000611eee826117f4565b91507fffffffffffffffffffffffffffffffffffffffffffffffffffffffffffffffff8203611f2057611f1f611be1565b5b600182019050919050565b7f4e6f7468696e6720746f20776974686472617700000000000000000000000000600082015250565b6000611f61601383611af8565b9150611f6c82611f2b565b602082019050919050565b60006020820190508181036000830152611f9081611f54565b9050919050565b600081905092915050565b50565b6000611fb2600083611f97565b9150611fbd82611fa2565b600082019050919050565b6000611fd382611fa5565b9150819050919050565b7f4661696c656420746f2073656e64204574686572000000000000000000000000600082015250565b6000612013601483611af8565b915061201e82611fdd565b602082019050919050565b6000602082019050818103600083015261204281612006565b9050919050565b7f436f6e7472616374206973207374617274656400000000000000000000000000600082015250565b600061207f601383611af8565b915061208a82612049565b602082019050919050565b600060208201905081810360008301526120ae81612072565b9050919050565b60006060820190506120ca60008301866117fe565b6120d760208301856117fe565b6120e460408301846117fe565b949350505050565b7f526f756e64206973206e6f7420656e6465640000000000000000000000000000600082015250565b6000612122601283611af8565b915061212d826120ec565b602082019050919050565b6000602082019050818103600083015261215181612115565b9050919050565b600060808201905061216d60008301876117fe565b61217a60208301866119d9565b61218760408301856117fe565b61219460608301846117fe565b95945050505050565b60006040820190506121b260008301856119d9565b6121bf602083018461188b565b939250505056fea26469706673582212206a5289cbfafe43d82f61a99b90c1df5f0ee47162b590aaaa5036f0445a606f4164736f6c634300081b0033",
  "linkReferences": {},
  "deployedLinkReferences": {}
}