{
  "_format": "hh-sol-artifact-1",
  "contractName": "DollarAuction",
  "sourceName": "contracts/DollarAuction.sol",
  "abi": [
    {
      "inputs": [
        {
          "internalType": "address",
          "name": "_defaultAdmin",
          "type": "address"
        },
        {
          "internalType": "address",
          "name": "_workerAddress",
          "type": "address"
        },
        {
          "internalType": "address",
          "name": "_paradoxTokenAddress",
          "type": "address"
        }
      ],
      "stateMutability": "nonpayable",
      "type": "constructor"
    },
    {
      "inputs": [],
      "name": "AccessControlBadConfirmation",
      "type": "error"
    },
    {
      "inputs": [
        {
          "internalType": "address",
          "name": "account",
          "type": "address"
        },
        {
          "internalType": "bytes32",
          "name": "neededRole",
          "type": "bytes32"
        }
      ],
      "name": "AccessControlUnauthorizedAccount",
      "type": "error"
    },
    {
      "inputs": [],
      "name": "ReentrancyGuardReentrantCall",
      "type": "error"
    },
    {
      "anonymous": false,
      "inputs": [
        {
          "indexed": false,
          "internalType": "uint256",
          "name": "roundId",
          "type": "uint256"
        },
        {
          "indexed": false,
          "internalType": "address",
          "name": "bidder",
          "type": "address"
        },
        {
          "indexed": false,
          "internalType": "uint256",
          "name": "amount",
          "type": "uint256"
        }
      ],
      "name": "BidCreated",
      "type": "event"
    },
    {
      "anonymous": false,
      "inputs": [
        {
          "indexed": false,
          "internalType": "uint256",
          "name": "roundId",
          "type": "uint256"
        },
        {
          "indexed": false,
          "internalType": "address",
          "name": "to",
          "type": "address"
        },
        {
          "indexed": false,
          "internalType": "uint256",
          "name": "amount",
          "type": "uint256"
        }
      ],
      "name": "Refund",
      "type": "event"
    },
    {
      "anonymous": false,
      "inputs": [
        {
          "indexed": true,
          "internalType": "bytes32",
          "name": "role",
          "type": "bytes32"
        },
        {
          "indexed": true,
          "internalType": "bytes32",
          "name": "previousAdminRole",
          "type": "bytes32"
        },
        {
          "indexed": true,
          "internalType": "bytes32",
          "name": "newAdminRole",
          "type": "bytes32"
        }
      ],
      "name": "RoleAdminChanged",
      "type": "event"
    },
    {
      "anonymous": false,
      "inputs": [
        {
          "indexed": true,
          "internalType": "bytes32",
          "name": "role",
          "type": "bytes32"
        },
        {
          "indexed": true,
          "internalType": "address",
          "name": "account",
          "type": "address"
        },
        {
          "indexed": true,
          "internalType": "address",
          "name": "sender",
          "type": "address"
        }
      ],
      "name": "RoleGranted",
      "type": "event"
    },
    {
      "anonymous": false,
      "inputs": [
        {
          "indexed": true,
          "internalType": "bytes32",
          "name": "role",
          "type": "bytes32"
        },
        {
          "indexed": true,
          "internalType": "address",
          "name": "account",
          "type": "address"
        },
        {
          "indexed": true,
          "internalType": "address",
          "name": "sender",
          "type": "address"
        }
      ],
      "name": "RoleRevoked",
      "type": "event"
    },
    {
      "anonymous": false,
      "inputs": [
        {
          "indexed": false,
          "internalType": "uint256",
          "name": "roundId",
          "type": "uint256"
        },
        {
          "indexed": false,
          "internalType": "uint256",
          "name": "roundPrize",
          "type": "uint256"
        },
        {
          "indexed": false,
          "internalType": "uint256",
          "name": "roundEndTime",
          "type": "uint256"
        }
      ],
      "name": "RoundCreated",
      "type": "event"
    },
    {
      "anonymous": false,
      "inputs": [
        {
          "indexed": false,
          "internalType": "uint256",
          "name": "roundId",
          "type": "uint256"
        },
        {
          "indexed": false,
          "internalType": "address",
          "name": "winner",
          "type": "address"
        },
        {
          "indexed": false,
          "internalType": "uint256",
          "name": "amount",
          "type": "uint256"
        },
        {
          "indexed": false,
          "internalType": "uint256",
          "name": "prize",
          "type": "uint256"
        }
      ],
      "name": "RoundEnded",
      "type": "event"
    },
    {
      "stateMutability": "payable",
      "type": "fallback"
    },
    {
      "inputs": [],
      "name": "DEFAULT_ADMIN_ROLE",
      "outputs": [
        {
          "internalType": "bytes32",
          "name": "",
          "type": "bytes32"
        }
      ],
      "stateMutability": "view",
      "type": "function"
    },
    {
      "inputs": [],
      "name": "WORKER_ROLE",
      "outputs": [
        {
          "internalType": "bytes32",
          "name": "",
          "type": "bytes32"
        }
      ],
      "stateMutability": "view",
      "type": "function"
    },
    {
      "inputs": [
        {
          "internalType": "uint256",
          "name": "value",
          "type": "uint256"
        }
      ],
      "name": "bid",
      "outputs": [],
      "stateMutability": "nonpayable",
      "type": "function"
    },
    {
      "inputs": [],
      "name": "bidStep",
      "outputs": [
        {
          "internalType": "uint256",
          "name": "",
          "type": "uint256"
        }
      ],
      "stateMutability": "view",
      "type": "function"
    },
    {
      "inputs": [],
      "name": "endRoundAndCreateNewRound",
      "outputs": [],
      "stateMutability": "nonpayable",
      "type": "function"
    },
    {
      "inputs": [
        {
          "internalType": "bytes32",
          "name": "role",
          "type": "bytes32"
        }
      ],
      "name": "getRoleAdmin",
      "outputs": [
        {
          "internalType": "bytes32",
          "name": "",
          "type": "bytes32"
        }
      ],
      "stateMutability": "view",
      "type": "function"
    },
    {
      "inputs": [
        {
          "internalType": "bytes32",
          "name": "role",
          "type": "bytes32"
        },
        {
          "internalType": "address",
          "name": "account",
          "type": "address"
        }
      ],
      "name": "grantRole",
      "outputs": [],
      "stateMutability": "nonpayable",
      "type": "function"
    },
    {
      "inputs": [
        {
          "internalType": "bytes32",
          "name": "role",
          "type": "bytes32"
        },
        {
          "internalType": "address",
          "name": "account",
          "type": "address"
        }
      ],
      "name": "hasRole",
      "outputs": [
        {
          "internalType": "bool",
          "name": "",
          "type": "bool"
        }
      ],
      "stateMutability": "view",
      "type": "function"
    },
    {
      "inputs": [],
      "name": "isActive",
      "outputs": [
        {
          "internalType": "bool",
          "name": "",
          "type": "bool"
        }
      ],
      "stateMutability": "view",
      "type": "function"
    },
    {
      "inputs": [],
      "name": "minRoundDuration",
      "outputs": [
        {
          "internalType": "uint256",
          "name": "",
          "type": "uint256"
        }
      ],
      "stateMutability": "view",
      "type": "function"
    },
    {
      "inputs": [],
      "name": "minRoundPrize",
      "outputs": [
        {
          "internalType": "uint256",
          "name": "",
          "type": "uint256"
        }
      ],
      "stateMutability": "view",
      "type": "function"
    },
    {
      "inputs": [],
      "name": "nextRoundPrize",
      "outputs": [
        {
          "internalType": "uint256",
          "name": "",
          "type": "uint256"
        }
      ],
      "stateMutability": "view",
      "type": "function"
    },
    {
      "inputs": [],
      "name": "nextRoundPrizePercent",
      "outputs": [
        {
          "internalType": "uint256",
          "name": "",
          "type": "uint256"
        }
      ],
      "stateMutability": "view",
      "type": "function"
    },
    {
      "inputs": [],
      "name": "numberOfBids",
      "outputs": [
        {
          "internalType": "uint256",
          "name": "",
          "type": "uint256"
        }
      ],
      "stateMutability": "view",
      "type": "function"
    },
    {
      "inputs": [
        {
          "internalType": "bytes32",
          "name": "role",
          "type": "bytes32"
        },
        {
          "internalType": "address",
          "name": "callerConfirmation",
          "type": "address"
        }
      ],
      "name": "renounceRole",
      "outputs": [],
      "stateMutability": "nonpayable",
      "type": "function"
    },
    {
      "inputs": [
        {
          "internalType": "bytes32",
          "name": "role",
          "type": "bytes32"
        },
        {
          "internalType": "address",
          "name": "account",
          "type": "address"
        }
      ],
      "name": "revokeRole",
      "outputs": [],
      "stateMutability": "nonpayable",
      "type": "function"
    },
    {
      "inputs": [],
      "name": "roundEndTime",
      "outputs": [
        {
          "internalType": "uint256",
          "name": "",
          "type": "uint256"
        }
      ],
      "stateMutability": "view",
      "type": "function"
    },
    {
      "inputs": [],
      "name": "roundId",
      "outputs": [
        {
          "internalType": "uint256",
          "name": "",
          "type": "uint256"
        }
      ],
      "stateMutability": "view",
      "type": "function"
    },
    {
      "inputs": [],
      "name": "roundInfo",
      "outputs": [
        {
          "internalType": "uint256",
          "name": "",
          "type": "uint256"
        },
        {
          "internalType": "uint256",
          "name": "",
          "type": "uint256"
        },
        {
          "internalType": "uint256",
          "name": "",
          "type": "uint256"
        },
        {
          "internalType": "uint256",
          "name": "",
          "type": "uint256"
        },
        {
          "internalType": "uint256",
          "name": "",
          "type": "uint256"
        },
        {
          "internalType": "uint256",
          "name": "",
          "type": "uint256"
        },
        {
          "internalType": "uint256",
          "name": "",
          "type": "uint256"
        },
        {
          "internalType": "address",
          "name": "",
          "type": "address"
        },
        {
          "internalType": "uint256",
          "name": "",
          "type": "uint256"
        },
        {
          "internalType": "address",
          "name": "",
          "type": "address"
        },
        {
          "internalType": "uint256",
          "name": "",
          "type": "uint256"
        },
        {
          "internalType": "bool",
          "name": "",
          "type": "bool"
        }
      ],
      "stateMutability": "view",
      "type": "function"
    },
    {
      "inputs": [],
      "name": "roundPrize",
      "outputs": [
        {
          "internalType": "uint256",
          "name": "",
          "type": "uint256"
        }
      ],
      "stateMutability": "view",
      "type": "function"
    },
    {
      "inputs": [],
      "name": "roundSecondBid",
      "outputs": [
        {
          "internalType": "uint256",
          "name": "",
          "type": "uint256"
        }
      ],
      "stateMutability": "view",
      "type": "function"
    },
    {
      "inputs": [],
      "name": "roundSecondPosition",
      "outputs": [
        {
          "internalType": "address",
          "name": "",
          "type": "address"
        }
      ],
      "stateMutability": "view",
      "type": "function"
    },
    {
      "inputs": [],
      "name": "roundWinner",
      "outputs": [
        {
          "internalType": "address",
          "name": "",
          "type": "address"
        }
      ],
      "stateMutability": "view",
      "type": "function"
    },
    {
      "inputs": [],
      "name": "roundWinnerBid",
      "outputs": [
        {
          "internalType": "uint256",
          "name": "",
          "type": "uint256"
        }
      ],
      "stateMutability": "view",
      "type": "function"
    },
    {
      "inputs": [],
      "name": "start",
      "outputs": [],
      "stateMutability": "nonpayable",
      "type": "function"
    },
    {
      "inputs": [
        {
          "internalType": "bytes4",
          "name": "interfaceId",
          "type": "bytes4"
        }
      ],
      "name": "supportsInterface",
      "outputs": [
        {
          "internalType": "bool",
          "name": "",
          "type": "bool"
        }
      ],
      "stateMutability": "view",
      "type": "function"
    },
    {
      "inputs": [],
      "name": "timeStep",
      "outputs": [
        {
          "internalType": "uint256",
          "name": "",
          "type": "uint256"
        }
      ],
      "stateMutability": "view",
      "type": "function"
    },
    {
      "inputs": [],
      "name": "token",
      "outputs": [
        {
          "internalType": "contract Paradox",
          "name": "",
          "type": "address"
        }
      ],
      "stateMutability": "view",
      "type": "function"
    },
    {
      "inputs": [
        {
          "internalType": "uint256",
          "name": "_bidStep",
          "type": "uint256"
        },
        {
          "internalType": "uint256",
          "name": "_timeStep",
          "type": "uint256"
        },
        {
          "internalType": "uint256",
          "name": "_nextRoundPrizePercent",
          "type": "uint256"
        },
        {
          "internalType": "uint256",
          "name": "_minRoundPrize",
          "type": "uint256"
        },
        {
          "internalType": "uint256",
          "name": "_minRoundDuration",
          "type": "uint256"
        }
      ],
      "name": "updateConfig",
      "outputs": [],
      "stateMutability": "nonpayable",
      "type": "function"
    },
    {
      "inputs": [
        {
          "internalType": "address",
          "name": "to",
          "type": "address"
        }
      ],
      "name": "withdraw",
      "outputs": [],
      "stateMutability": "nonpayable",
      "type": "function"
    },
    {
      "stateMutability": "payable",
      "type": "receive"
    }
  ],
  "bytecode": "0x60a0604052683635c9adc5dea0000060025560786003556103e8600455690a968163f0a57b400000600555611c2060065534801561003c57600080fd5b506040516126e33803806126e3833981810160405281019061005e91906102b8565b600180819055506100786000801b846100e660201b60201c565b506100a97ff1b411d6abb365480ac902cc153c45e9ded5847a2265ce6d01945d253edb6bc7836100e660201b60201c565b508073ffffffffffffffffffffffffffffffffffffffff1660808173ffffffffffffffffffffffffffffffffffffffff168152505050505061030b565b60006100f883836101e360201b60201c565b6101d857600160008085815260200190815260200160002060000160008473ffffffffffffffffffffffffffffffffffffffff1673ffffffffffffffffffffffffffffffffffffffff16815260200190815260200160002060006101000a81548160ff02191690831515021790555061017561024d60201b60201c565b73ffffffffffffffffffffffffffffffffffffffff168273ffffffffffffffffffffffffffffffffffffffff16847f2f8788117e7eff1d82e926ec794901d17c78024a50270940304540a733656f0d60405160405180910390a4600190506101dd565b600090505b92915050565b600080600084815260200190815260200160002060000160008373ffffffffffffffffffffffffffffffffffffffff1673ffffffffffffffffffffffffffffffffffffffff16815260200190815260200160002060009054906101000a900460ff16905092915050565b600033905090565b600080fd5b600073ffffffffffffffffffffffffffffffffffffffff82169050919050565b60006102858261025a565b9050919050565b6102958161027a565b81146102a057600080fd5b50565b6000815190506102b28161028c565b92915050565b6000806000606084860312156102d1576102d0610255565b5b60006102df868287016102a3565b93505060206102f0868287016102a3565b9250506040610301868287016102a3565b9150509250925092565b6080516123a16103426000396000818161097801528181610a5501528181610b660152818161129901526114f401526123a16000f3fe6080604052600436106101d15760003560e01c80638fe42147116100f7578063cace12e611610095578063e40205d611610064578063e40205d614610653578063e9ecc5651461067e578063ea051b5114610695578063fc0c546a146106c0576101d2565b8063cace12e61461059e578063d25a0587146105d4578063d547741f146105ff578063dc6676f814610628576101d2565b8063a823a60d116100d1578063a823a60d14610508578063b232c18d14610533578063be9a65551461055c578063bf05a22e14610573576101d2565b80638fe421471461047557806391d14854146104a0578063a217fddf146104dd576101d2565b806326a46c731161016f57806351cff8d91161013e57806351cff8d9146103cb5780635d849a7b146103f4578063634252dc1461041f5780638cd221c91461044a576101d2565b806326a46c73146103255780632f2ff15d1461035057806336568abe14610379578063454a2ab3146103a2576101d2565b80631770e96a116101ab5780631770e96a1461026757806317d531fc1461029257806322f3e2d4146102bd578063248a9ca3146102e8576101d2565b806301ffc9a7146101d45780631502906d1461021157806316ec07f61461023c576101d2565b5b005b3480156101e057600080fd5b506101fb60048036038101906101f6919061187c565b6106eb565b60405161020891906118c4565b60405180910390f35b34801561021d57600080fd5b50610226610765565b60405161023391906118f8565b60405180910390f35b34801561024857600080fd5b5061025161076b565b60405161025e91906118f8565b60405180910390f35b34801561027357600080fd5b5061027c610771565b60405161028991906118f8565b60405180910390f35b34801561029e57600080fd5b506102a7610777565b6040516102b491906118f8565b60405180910390f35b3480156102c957600080fd5b506102d261077d565b6040516102df91906118c4565b60405180910390f35b3480156102f457600080fd5b5061030f600480360381019061030a9190611949565b61078a565b60405161031c9190611985565b60405180910390f35b34801561033157600080fd5b5061033a6107a9565b60405161034791906118f8565b60405180910390f35b34801561035c57600080fd5b50610377600480360381019061037291906119fe565b6107af565b005b34801561038557600080fd5b506103a0600480360381019061039b91906119fe565b6107d1565b005b3480156103ae57600080fd5b506103c960048036038101906103c49190611a6a565b61084c565b005b3480156103d757600080fd5b506103f260048036038101906103ed9190611a97565b610dce565b005b34801561040057600080fd5b50610409610ee5565b60405161041691906118f8565b60405180910390f35b34801561042b57600080fd5b50610434610eeb565b6040516104419190611985565b60405180910390f35b34801561045657600080fd5b5061045f610f0f565b60405161046c91906118f8565b60405180910390f35b34801561048157600080fd5b5061048a610f15565b60405161049791906118f8565b60405180910390f35b3480156104ac57600080fd5b506104c760048036038101906104c291906119fe565b610f1b565b6040516104d491906118c4565b60405180910390f35b3480156104e957600080fd5b506104f2610f85565b6040516104ff9190611985565b60405180910390f35b34801561051457600080fd5b5061051d610f8c565b60405161052a9190611ad3565b60405180910390f35b34801561053f57600080fd5b5061055a60048036038101906105559190611aee565b610fb2565b005b34801561056857600080fd5b50610571611007565b005b34801561057f57600080fd5b506105886110f8565b60405161059591906118f8565b60405180910390f35b3480156105aa57600080fd5b506105b36110fe565b6040516105cb9c9b9a99989796959493929190611b69565b60405180910390f35b3480156105e057600080fd5b506105e961119b565b6040516105f691906118f8565b60405180910390f35b34801561060b57600080fd5b50610626600480360381019061062191906119fe565b6111a1565b005b34801561063457600080fd5b5061063d6111c3565b60405161064a91906118f8565b60405180910390f35b34801561065f57600080fd5b506106686111c9565b60405161067591906118f8565b60405180910390f35b34801561068a57600080fd5b506106936111cf565b005b3480156106a157600080fd5b506106aa6114cc565b6040516106b79190611ad3565b60405180910390f35b3480156106cc57600080fd5b506106d56114f2565b6040516106e29190611c82565b60405180910390f35b60007f7965db0b000000000000000000000000000000000000000000000000000000007bffffffffffffffffffffffffffffffffffffffffffffffffffffffff1916827bffffffffffffffffffffffffffffffffffffffffffffffffffffffff1916148061075e575061075d82611516565b5b9050919050565b60035481565b60025481565b600a5481565b600b5481565b6000600954421115905090565b6000806000838152602001908152602001600020600101549050919050565b60065481565b6107b88261078a565b6107c181611580565b6107cb8383611594565b50505050565b6107d9611685565b73ffffffffffffffffffffffffffffffffffffffff168173ffffffffffffffffffffffffffffffffffffffff161461083d576040517f6697b23200000000000000000000000000000000000000000000000000000000815260040160405180910390fd5b610847828261168d565b505050565b61085461077d565b610893576040517f08c379a000000000000000000000000000000000000000000000000000000000815260040161088a90611cfa565b60405180910390fd5b600d60009054906101000a900473ffffffffffffffffffffffffffffffffffffffff1673ffffffffffffffffffffffffffffffffffffffff163373ffffffffffffffffffffffffffffffffffffffff1603610923576040517f08c379a000000000000000000000000000000000000000000000000000000000815260040161091a90611d66565b60405180910390fd5b600254600c546109339190611db5565b811015610975576040517f08c379a000000000000000000000000000000000000000000000000000000000815260040161096c90611e5b565b60405180910390fd5b807f000000000000000000000000000000000000000000000000000000000000000073ffffffffffffffffffffffffffffffffffffffff1663dd62ed3e33306040518363ffffffff1660e01b81526004016109d1929190611e7b565b602060405180830381865afa1580156109ee573d6000803e3d6000fd5b505050506040513d601f19601f82011682018060405250810190610a129190611eb9565b1015610a53576040517f08c379a0000000000000000000000000000000000000000000000000000000008152600401610a4a90611f32565b60405180910390fd5b7f000000000000000000000000000000000000000000000000000000000000000073ffffffffffffffffffffffffffffffffffffffff166379cc679033836040518363ffffffff1660e01b8152600401610aae929190611f52565b600060405180830381600087803b158015610ac857600080fd5b505af1158015610adc573d6000803e3d6000fd5b50505050600073ffffffffffffffffffffffffffffffffffffffff16600f60009054906101000a900473ffffffffffffffffffffffffffffffffffffffff1673ffffffffffffffffffffffffffffffffffffffff1614610c74576000612710600454612710610b4b9190611f7b565b600e54610b589190611faf565b610b629190612020565b90507f000000000000000000000000000000000000000000000000000000000000000073ffffffffffffffffffffffffffffffffffffffff166340c10f19600f60009054906101000a900473ffffffffffffffffffffffffffffffffffffffff16836040518363ffffffff1660e01b8152600401610be1929190611f52565b600060405180830381600087803b158015610bfb57600080fd5b505af1158015610c0f573d6000803e3d6000fd5b505050507f21e12a7cad0da5928167e1084ea4d5fdf8d9af66657a2543a9ac76a0ca081477600754600f60009054906101000a900473ffffffffffffffffffffffffffffffffffffffff1683604051610c6a93929190612051565b60405180910390a1505b600b6000815480929190610c8790612088565b9190505550600d60009054906101000a900473ffffffffffffffffffffffffffffffffffffffff16600f60006101000a81548173ffffffffffffffffffffffffffffffffffffffff021916908373ffffffffffffffffffffffffffffffffffffffff160217905550600c54600e8190555033600d60006101000a81548173ffffffffffffffffffffffffffffffffffffffff021916908373ffffffffffffffffffffffffffffffffffffffff16021790555080600c8190555060035460096000828254610d549190611db5565b9250508190555061271060045482610d6c9190611faf565b610d769190612020565b600a6000828254610d879190611db5565b925050819055507f0bda7f7cf42011b27b057b83f3bf21f963b84eb591478e6b413b18d7872cd37a6007543383604051610dc393929190612051565b60405180910390a150565b610dd661177f565b6000801b610de381611580565b60004711610e26576040517f08c379a0000000000000000000000000000000000000000000000000000000008152600401610e1d9061211c565b60405180910390fd5b600082905060008173ffffffffffffffffffffffffffffffffffffffff1647604051610e519061216d565b60006040518083038185875af1925050503d8060008114610e8e576040519150601f19603f3d011682016040523d82523d6000602084013e610e93565b606091505b5050905080610ed7576040517f08c379a0000000000000000000000000000000000000000000000000000000008152600401610ece906121ce565b60405180910390fd5b505050610ee26117c5565b50565b600e5481565b7ff1b411d6abb365480ac902cc153c45e9ded5847a2265ce6d01945d253edb6bc781565b60075481565b60045481565b600080600084815260200190815260200160002060000160008373ffffffffffffffffffffffffffffffffffffffff1673ffffffffffffffffffffffffffffffffffffffff16815260200190815260200160002060009054906101000a900460ff16905092915050565b6000801b81565b600d60009054906101000a900473ffffffffffffffffffffffffffffffffffffffff1681565b7ff1b411d6abb365480ac902cc153c45e9ded5847a2265ce6d01945d253edb6bc7610fdc81611580565b8560028190555084600381905550836004819055508260058190555081600681905550505050505050565b7ff1b411d6abb365480ac902cc153c45e9ded5847a2265ce6d01945d253edb6bc761103181611580565b600060075414611076576040517f08c379a000000000000000000000000000000000000000000000000000000000815260040161106d9061223a565b60405180910390fd5b6007600081548092919061108990612088565b9190505550600554600881905550600654426110a59190611db5565b600981905550600554600a819055507f68e7b09ec44e876e76ff05157850e3261aa63a8680fe21a2ba93dcbb2b09f58f6007546008546009546040516110ed9392919061225a565b60405180910390a150565b60055481565b6000806000806000806000806000806000804342600754600854600954600a54600c54600d60009054906101000a900473ffffffffffffffffffffffffffffffffffffffff16600e54600f60009054906101000a900473ffffffffffffffffffffffffffffffffffffffff16600b5461117561077d565b9b509b509b509b509b509b509b509b509b509b509b509b50909192939495969798999a9b565b60085481565b6111aa8261078a565b6111b381611580565b6111bd838361168d565b50505050565b600c5481565b60095481565b7ff1b411d6abb365480ac902cc153c45e9ded5847a2265ce6d01945d253edb6bc76111f981611580565b61120161077d565b15611241576040517f08c379a0000000000000000000000000000000000000000000000000000000008152600401611238906122dd565b60405180910390fd5b600073ffffffffffffffffffffffffffffffffffffffff16600d60009054906101000a900473ffffffffffffffffffffffffffffffffffffffff1673ffffffffffffffffffffffffffffffffffffffff1614611349577f000000000000000000000000000000000000000000000000000000000000000073ffffffffffffffffffffffffffffffffffffffff166340c10f19600d60009054906101000a900473ffffffffffffffffffffffffffffffffffffffff166008546040518363ffffffff1660e01b8152600401611316929190611f52565b600060405180830381600087803b15801561133057600080fd5b505af1158015611344573d6000803e3d6000fd5b505050505b7f27204cd9208d6f69d2ec3166c5141707a7e6d8907a43ec5dfd33eb4f4f8ed533600754600d60009054906101000a900473ffffffffffffffffffffffffffffffffffffffff16600c546008546040516113a694939291906122fd565b60405180910390a1600760008154809291906113c190612088565b9190505550600a54600881905550600654426113dd9190611db5565b6009819055506000600d60006101000a81548173ffffffffffffffffffffffffffffffffffffffff021916908373ffffffffffffffffffffffffffffffffffffffff1602179055506000600c819055506000600f60006101000a81548173ffffffffffffffffffffffffffffffffffffffff021916908373ffffffffffffffffffffffffffffffffffffffff1602179055506000600e81905550600554600a819055506000600b819055507f68e7b09ec44e876e76ff05157850e3261aa63a8680fe21a2ba93dcbb2b09f58f6007546008546009546040516114c19392919061225a565b60405180910390a150565b600f60009054906101000a900473ffffffffffffffffffffffffffffffffffffffff1681565b7f000000000000000000000000000000000000000000000000000000000000000081565b60007f01ffc9a7000000000000000000000000000000000000000000000000000000007bffffffffffffffffffffffffffffffffffffffffffffffffffffffff1916827bffffffffffffffffffffffffffffffffffffffffffffffffffffffff1916149050919050565b6115918161158c611685565b6117ce565b50565b60006115a08383610f1b565b61167a57600160008085815260200190815260200160002060000160008473ffffffffffffffffffffffffffffffffffffffff1673ffffffffffffffffffffffffffffffffffffffff16815260200190815260200160002060006101000a81548160ff021916908315150217905550611617611685565b73ffffffffffffffffffffffffffffffffffffffff168273ffffffffffffffffffffffffffffffffffffffff16847f2f8788117e7eff1d82e926ec794901d17c78024a50270940304540a733656f0d60405160405180910390a46001905061167f565b600090505b92915050565b600033905090565b60006116998383610f1b565b1561177457600080600085815260200190815260200160002060000160008473ffffffffffffffffffffffffffffffffffffffff1673ffffffffffffffffffffffffffffffffffffffff16815260200190815260200160002060006101000a81548160ff021916908315150217905550611711611685565b73ffffffffffffffffffffffffffffffffffffffff168273ffffffffffffffffffffffffffffffffffffffff16847ff6391f5c32d9c69d2a47ea670b442974b53935d1edc7fd64eb21e047a839171b60405160405180910390a460019050611779565b600090505b92915050565b6002600154036117bb576040517f3ee5aeb500000000000000000000000000000000000000000000000000000000815260040160405180910390fd5b6002600181905550565b60018081905550565b6117d88282610f1b565b61181b5780826040517fe2517d3f000000000000000000000000000000000000000000000000000000008152600401611812929190612342565b60405180910390fd5b5050565b600080fd5b60007fffffffff0000000000000000000000000000000000000000000000000000000082169050919050565b61185981611824565b811461186457600080fd5b50565b60008135905061187681611850565b92915050565b6000602082840312156118925761189161181f565b5b60006118a084828501611867565b91505092915050565b60008115159050919050565b6118be816118a9565b82525050565b60006020820190506118d960008301846118b5565b92915050565b6000819050919050565b6118f2816118df565b82525050565b600060208201905061190d60008301846118e9565b92915050565b6000819050919050565b61192681611913565b811461193157600080fd5b50565b6000813590506119438161191d565b92915050565b60006020828403121561195f5761195e61181f565b5b600061196d84828501611934565b91505092915050565b61197f81611913565b82525050565b600060208201905061199a6000830184611976565b92915050565b600073ffffffffffffffffffffffffffffffffffffffff82169050919050565b60006119cb826119a0565b9050919050565b6119db816119c0565b81146119e657600080fd5b50565b6000813590506119f8816119d2565b92915050565b60008060408385031215611a1557611a1461181f565b5b6000611a2385828601611934565b9250506020611a34858286016119e9565b9150509250929050565b611a47816118df565b8114611a5257600080fd5b50565b600081359050611a6481611a3e565b92915050565b600060208284031215611a8057611a7f61181f565b5b6000611a8e84828501611a55565b91505092915050565b600060208284031215611aad57611aac61181f565b5b6000611abb848285016119e9565b91505092915050565b611acd816119c0565b82525050565b6000602082019050611ae86000830184611ac4565b92915050565b600080600080600060a08688031215611b0a57611b0961181f565b5b6000611b1888828901611a55565b9550506020611b2988828901611a55565b9450506040611b3a88828901611a55565b9350506060611b4b88828901611a55565b9250506080611b5c88828901611a55565b9150509295509295909350565b600061018082019050611b7f600083018f6118e9565b611b8c602083018e6118e9565b611b99604083018d6118e9565b611ba6606083018c6118e9565b611bb3608083018b6118e9565b611bc060a083018a6118e9565b611bcd60c08301896118e9565b611bda60e0830188611ac4565b611be86101008301876118e9565b611bf6610120830186611ac4565b611c046101408301856118e9565b611c126101608301846118b5565b9d9c50505050505050505050505050565b6000819050919050565b6000611c48611c43611c3e846119a0565b611c23565b6119a0565b9050919050565b6000611c5a82611c2d565b9050919050565b6000611c6c82611c4f565b9050919050565b611c7c81611c61565b82525050565b6000602082019050611c976000830184611c73565b92915050565b600082825260208201905092915050565b7f526f756e6420656e646564000000000000000000000000000000000000000000600082015250565b6000611ce4600b83611c9d565b9150611cef82611cae565b602082019050919050565b60006020820190508181036000830152611d1381611cd7565b9050919050565b7f43616e6e6f742074616b65206f76657220796f757273656c6600000000000000600082015250565b6000611d50601983611c9d565b9150611d5b82611d1a565b602082019050919050565b60006020820190508181036000830152611d7f81611d43565b9050919050565b7f4e487b7100000000000000000000000000000000000000000000000000000000600052601160045260246000fd5b6000611dc0826118df565b9150611dcb836118df565b9250828201905080821115611de357611de2611d86565b5b92915050565b7f4d75737420626964206174206c656173742031206269642073746570206d6f7260008201527f65207468616e206d61782062696464696e670000000000000000000000000000602082015250565b6000611e45603283611c9d565b9150611e5082611de9565b604082019050919050565b60006020820190508181036000830152611e7481611e38565b9050919050565b6000604082019050611e906000830185611ac4565b611e9d6020830184611ac4565b9392505050565b600081519050611eb381611a3e565b92915050565b600060208284031215611ecf57611ece61181f565b5b6000611edd84828501611ea4565b91505092915050565b7f4e6f7420616c6c6f77616e636500000000000000000000000000000000000000600082015250565b6000611f1c600d83611c9d565b9150611f2782611ee6565b602082019050919050565b60006020820190508181036000830152611f4b81611f0f565b9050919050565b6000604082019050611f676000830185611ac4565b611f7460208301846118e9565b9392505050565b6000611f86826118df565b9150611f91836118df565b9250828203905081811115611fa957611fa8611d86565b5b92915050565b6000611fba826118df565b9150611fc5836118df565b9250828202611fd3816118df565b91508282048414831517611fea57611fe9611d86565b5b5092915050565b7f4e487b7100000000000000000000000000000000000000000000000000000000600052601260045260246000fd5b600061202b826118df565b9150612036836118df565b92508261204657612045611ff1565b5b828204905092915050565b600060608201905061206660008301866118e9565b6120736020830185611ac4565b61208060408301846118e9565b949350505050565b6000612093826118df565b91507fffffffffffffffffffffffffffffffffffffffffffffffffffffffffffffffff82036120c5576120c4611d86565b5b600182019050919050565b7f4e6f7468696e6720746f20776974686472617700000000000000000000000000600082015250565b6000612106601383611c9d565b9150612111826120d0565b602082019050919050565b60006020820190508181036000830152612135816120f9565b9050919050565b600081905092915050565b50565b600061215760008361213c565b915061216282612147565b600082019050919050565b60006121788261214a565b9150819050919050565b7f4661696c656420746f2073656e64204574686572000000000000000000000000600082015250565b60006121b8601483611c9d565b91506121c382612182565b602082019050919050565b600060208201905081810360008301526121e7816121ab565b9050919050565b7f436f6e7472616374206973207374617274656400000000000000000000000000600082015250565b6000612224601383611c9d565b915061222f826121ee565b602082019050919050565b6000602082019050818103600083015261225381612217565b9050919050565b600060608201905061226f60008301866118e9565b61227c60208301856118e9565b61228960408301846118e9565b949350505050565b7f526f756e64206973206e6f7420656e6465640000000000000000000000000000600082015250565b60006122c7601283611c9d565b91506122d282612291565b602082019050919050565b600060208201905081810360008301526122f6816122ba565b9050919050565b600060808201905061231260008301876118e9565b61231f6020830186611ac4565b61232c60408301856118e9565b61233960608301846118e9565b95945050505050565b60006040820190506123576000830185611ac4565b6123646020830184611976565b939250505056fea26469706673582212202c415011a216acf6ec056595ebca721c03efc9bc4db79ac47a87a7a4dcb6271564736f6c634300081b0033",
  "linkReferences": {},
  "deployedLinkReferences": {}
}