{
  "_format": "hh-sol-artifact-1",
  "contractName": "War",
  "sourceName": "contracts/War.sol",
  "abi": [
    {
      "inputs": [
        {
          "internalType": "address",
          "name": "_defaultAdmin",
          "type": "address"
        },
        {
          "internalType": "address",
          "name": "_workerAddress",
          "type": "address"
        },
        {
          "internalType": "address",
          "name": "_signerAddress",
          "type": "address"
        },
        {
          "internalType": "address",
          "name": "_pitcoinAddress",
          "type": "address"
        }
      ],
      "stateMutability": "nonpayable",
      "type": "constructor"
    },
    {
      "inputs": [],
      "name": "AccessControlBadConfirmation",
      "type": "error"
    },
    {
      "inputs": [
        {
          "internalType": "address",
          "name": "account",
          "type": "address"
        },
        {
          "internalType": "bytes32",
          "name": "neededRole",
          "type": "bytes32"
        }
      ],
      "name": "AccessControlUnauthorizedAccount",
      "type": "error"
    },
    {
      "inputs": [],
      "name": "ReentrancyGuardReentrantCall",
      "type": "error"
    },
    {
      "anonymous": false,
      "inputs": [
        {
          "indexed": false,
          "internalType": "uint256",
          "name": "roundId",
          "type": "uint256"
        },
        {
          "indexed": false,
          "internalType": "uint256",
          "name": "option",
          "type": "uint256"
        },
        {
          "indexed": false,
          "internalType": "address",
          "name": "from",
          "type": "address"
        },
        {
          "indexed": false,
          "internalType": "uint256",
          "name": "value",
          "type": "uint256"
        }
      ],
      "name": "BetCreated",
      "type": "event"
    },
    {
      "anonymous": false,
      "inputs": [
        {
          "indexed": true,
          "internalType": "bytes32",
          "name": "role",
          "type": "bytes32"
        },
        {
          "indexed": true,
          "internalType": "bytes32",
          "name": "previousAdminRole",
          "type": "bytes32"
        },
        {
          "indexed": true,
          "internalType": "bytes32",
          "name": "newAdminRole",
          "type": "bytes32"
        }
      ],
      "name": "RoleAdminChanged",
      "type": "event"
    },
    {
      "anonymous": false,
      "inputs": [
        {
          "indexed": true,
          "internalType": "bytes32",
          "name": "role",
          "type": "bytes32"
        },
        {
          "indexed": true,
          "internalType": "address",
          "name": "account",
          "type": "address"
        },
        {
          "indexed": true,
          "internalType": "address",
          "name": "sender",
          "type": "address"
        }
      ],
      "name": "RoleGranted",
      "type": "event"
    },
    {
      "anonymous": false,
      "inputs": [
        {
          "indexed": true,
          "internalType": "bytes32",
          "name": "role",
          "type": "bytes32"
        },
        {
          "indexed": true,
          "internalType": "address",
          "name": "account",
          "type": "address"
        },
        {
          "indexed": true,
          "internalType": "address",
          "name": "sender",
          "type": "address"
        }
      ],
      "name": "RoleRevoked",
      "type": "event"
    },
    {
      "stateMutability": "payable",
      "type": "fallback"
    },
    {
      "inputs": [],
      "name": "DEFAULT_ADMIN_ROLE",
      "outputs": [
        {
          "internalType": "bytes32",
          "name": "",
          "type": "bytes32"
        }
      ],
      "stateMutability": "view",
      "type": "function"
    },
    {
      "inputs": [],
      "name": "WORKER_ROLE",
      "outputs": [
        {
          "internalType": "bytes32",
          "name": "",
          "type": "bytes32"
        }
      ],
      "stateMutability": "view",
      "type": "function"
    },
    {
      "inputs": [
        {
          "internalType": "uint256",
          "name": "roundId",
          "type": "uint256"
        },
        {
          "internalType": "uint256",
          "name": "option",
          "type": "uint256"
        },
        {
          "internalType": "uint256",
          "name": "value",
          "type": "uint256"
        },
        {
          "internalType": "uint256",
          "name": "time",
          "type": "uint256"
        },
        {
          "internalType": "bytes",
          "name": "signature",
          "type": "bytes"
        }
      ],
      "name": "bet",
      "outputs": [],
      "stateMutability": "nonpayable",
      "type": "function"
    },
    {
      "inputs": [
        {
          "internalType": "bytes32",
          "name": "role",
          "type": "bytes32"
        }
      ],
      "name": "getRoleAdmin",
      "outputs": [
        {
          "internalType": "bytes32",
          "name": "",
          "type": "bytes32"
        }
      ],
      "stateMutability": "view",
      "type": "function"
    },
    {
      "inputs": [
        {
          "internalType": "bytes32",
          "name": "role",
          "type": "bytes32"
        },
        {
          "internalType": "address",
          "name": "account",
          "type": "address"
        }
      ],
      "name": "grantRole",
      "outputs": [],
      "stateMutability": "nonpayable",
      "type": "function"
    },
    {
      "inputs": [
        {
          "internalType": "bytes32",
          "name": "role",
          "type": "bytes32"
        },
        {
          "internalType": "address",
          "name": "account",
          "type": "address"
        }
      ],
      "name": "hasRole",
      "outputs": [
        {
          "internalType": "bool",
          "name": "",
          "type": "bool"
        }
      ],
      "stateMutability": "view",
      "type": "function"
    },
    {
      "inputs": [
        {
          "internalType": "bytes32",
          "name": "role",
          "type": "bytes32"
        },
        {
          "internalType": "address",
          "name": "callerConfirmation",
          "type": "address"
        }
      ],
      "name": "renounceRole",
      "outputs": [],
      "stateMutability": "nonpayable",
      "type": "function"
    },
    {
      "inputs": [
        {
          "internalType": "bytes32",
          "name": "role",
          "type": "bytes32"
        },
        {
          "internalType": "address",
          "name": "account",
          "type": "address"
        }
      ],
      "name": "revokeRole",
      "outputs": [],
      "stateMutability": "nonpayable",
      "type": "function"
    },
    {
      "inputs": [
        {
          "internalType": "address[]",
          "name": "winners",
          "type": "address[]"
        },
        {
          "internalType": "uint256[]",
          "name": "rewards",
          "type": "uint256[]"
        }
      ],
      "name": "sendRewards",
      "outputs": [],
      "stateMutability": "nonpayable",
      "type": "function"
    },
    {
      "inputs": [
        {
          "internalType": "bytes4",
          "name": "interfaceId",
          "type": "bytes4"
        }
      ],
      "name": "supportsInterface",
      "outputs": [
        {
          "internalType": "bool",
          "name": "",
          "type": "bool"
        }
      ],
      "stateMutability": "view",
      "type": "function"
    },
    {
      "inputs": [],
      "name": "token",
      "outputs": [
        {
          "internalType": "contract Pitcoin",
          "name": "",
          "type": "address"
        }
      ],
      "stateMutability": "view",
      "type": "function"
    },
    {
      "inputs": [],
      "name": "vtd",
      "outputs": [
        {
          "internalType": "uint256",
          "name": "",
          "type": "uint256"
        }
      ],
      "stateMutability": "view",
      "type": "function"
    },
    {
      "inputs": [
        {
          "internalType": "address",
          "name": "to",
          "type": "address"
        }
      ],
      "name": "withdraw",
      "outputs": [],
      "stateMutability": "nonpayable",
      "type": "function"
    },
    {
      "stateMutability": "payable",
      "type": "receive"
    }
  ],
  "bytecode": "0x60a060405234801561001057600080fd5b50604051611ee8380380611ee8833981810160405281019061003291906102ce565b6001808190555061004c6000801b856100fc60201b60201c565b5061007d7ff1b411d6abb365480ac902cc153c45e9ded5847a2265ce6d01945d253edb6bc7846100fc60201b60201c565b508073ffffffffffffffffffffffffffffffffffffffff1660808173ffffffffffffffffffffffffffffffffffffffff168152505081600260006101000a81548173ffffffffffffffffffffffffffffffffffffffff021916908373ffffffffffffffffffffffffffffffffffffffff16021790555050505050610335565b600061010e83836101f960201b60201c565b6101ee57600160008085815260200190815260200160002060000160008473ffffffffffffffffffffffffffffffffffffffff1673ffffffffffffffffffffffffffffffffffffffff16815260200190815260200160002060006101000a81548160ff02191690831515021790555061018b61026360201b60201c565b73ffffffffffffffffffffffffffffffffffffffff168273ffffffffffffffffffffffffffffffffffffffff16847f2f8788117e7eff1d82e926ec794901d17c78024a50270940304540a733656f0d60405160405180910390a4600190506101f3565b600090505b92915050565b600080600084815260200190815260200160002060000160008373ffffffffffffffffffffffffffffffffffffffff1673ffffffffffffffffffffffffffffffffffffffff16815260200190815260200160002060009054906101000a900460ff16905092915050565b600033905090565b600080fd5b600073ffffffffffffffffffffffffffffffffffffffff82169050919050565b600061029b82610270565b9050919050565b6102ab81610290565b81146102b657600080fd5b50565b6000815190506102c8816102a2565b92915050565b600080600080608085870312156102e8576102e761026b565b5b60006102f6878288016102b9565b9450506020610307878288016102b9565b9350506040610318878288016102b9565b9250506060610329878288016102b9565b91505092959194509250565b608051611b8361036560003960008181610440015281816106fc015281816108ee0152610a770152611b836000f3fe6080604052600436106100c65760003560e01c806351cff8d91161007f57806391d148541161005957806391d1485414610266578063a217fddf146102a3578063d547741f146102ce578063fc0c546a146102f7576100c7565b806351cff8d9146101e95780635aa074f814610212578063634252dc1461023b576100c7565b806301ffc9a7146100c9578063224a596414610106578063248a9ca31461012f5780632f2ff15d1461016c57806336568abe1461019557806341a21bcf146101be576100c7565b5b005b3480156100d557600080fd5b506100f060048036038101906100eb9190610f4a565b610322565b6040516100fd9190610f92565b60405180910390f35b34801561011257600080fd5b5061012d60048036038101906101289190611068565b61039c565b005b34801561013b57600080fd5b506101566004803603810190610151919061111f565b610521565b604051610163919061115b565b60405180910390f35b34801561017857600080fd5b50610193600480360381019061018e91906111d4565b610540565b005b3480156101a157600080fd5b506101bc60048036038101906101b791906111d4565b610562565b005b3480156101ca57600080fd5b506101d36105dd565b6040516101e0919061122d565b60405180910390f35b3480156101f557600080fd5b50610210600480360381019061020b9190611248565b6105e2565b005b34801561021e57600080fd5b50610239600480360381019061023491906113e2565b6106f9565b005b34801561024757600080fd5b506102506109be565b60405161025d919061115b565b60405180910390f35b34801561027257600080fd5b5061028d600480360381019061028891906111d4565b6109e2565b60405161029a9190610f92565b60405180910390f35b3480156102af57600080fd5b506102b8610a4c565b6040516102c5919061115b565b60405180910390f35b3480156102da57600080fd5b506102f560048036038101906102f091906111d4565b610a53565b005b34801561030357600080fd5b5061030c610a75565b60405161031991906114d8565b60405180910390f35b60007f7965db0b000000000000000000000000000000000000000000000000000000007bffffffffffffffffffffffffffffffffffffffffffffffffffffffff1916827bffffffffffffffffffffffffffffffffffffffffffffffffffffffff19161480610395575061039482610a99565b5b9050919050565b7ff1b411d6abb365480ac902cc153c45e9ded5847a2265ce6d01945d253edb6bc76103c681610b03565b82829050858590501461040e576040517f08c379a000000000000000000000000000000000000000000000000000000000815260040161040590611550565b60405180910390fd5b60005b8585905081101561051957600084848381811061043157610430611570565b5b90506020020135111561050c577f000000000000000000000000000000000000000000000000000000000000000073ffffffffffffffffffffffffffffffffffffffff166340c10f1987878481811061048d5761048c611570565b5b90506020020160208101906104a29190611248565b8686858181106104b5576104b4611570565b5b905060200201356040518363ffffffff1660e01b81526004016104d99291906115ae565b600060405180830381600087803b1580156104f357600080fd5b505af1158015610507573d6000803e3d6000fd5b505050505b8080600101915050610411565b505050505050565b6000806000838152602001908152602001600020600101549050919050565b61054982610521565b61055281610b03565b61055c8383610b17565b50505050565b61056a610c08565b73ffffffffffffffffffffffffffffffffffffffff168173ffffffffffffffffffffffffffffffffffffffff16146105ce576040517f6697b23200000000000000000000000000000000000000000000000000000000815260040160405180910390fd5b6105d88282610c10565b505050565b601481565b6105ea610d02565b6000801b6105f781610b03565b6000471161063a576040517f08c379a000000000000000000000000000000000000000000000000000000000815260040161063190611623565b60405180910390fd5b600082905060008173ffffffffffffffffffffffffffffffffffffffff164760405161066590611674565b60006040518083038185875af1925050503d80600081146106a2576040519150601f19603f3d011682016040523d82523d6000602084013e6106a7565b606091505b50509050806106eb576040517f08c379a00000000000000000000000000000000000000000000000000000000081526004016106e2906116d5565b60405180910390fd5b5050506106f6610d48565b50565b827f000000000000000000000000000000000000000000000000000000000000000073ffffffffffffffffffffffffffffffffffffffff1663dd62ed3e33306040518363ffffffff1660e01b81526004016107559291906116f5565b602060405180830381865afa158015610772573d6000803e3d6000fd5b505050506040513d601f19601f820116820180604052508101906107969190611733565b10156107d7576040517f08c379a00000000000000000000000000000000000000000000000000000000081526004016107ce906117ac565b60405180910390fd5b6014826107e491906117fb565b4210610825576040517f08c379a000000000000000000000000000000000000000000000000000000000815260040161081c9061187b565b60405180910390fd5b600061085e3387878787604051602001610843959493929190611904565b60405160208183030381529060405280519060200120610d51565b90506108ad8183600260009054906101000a900473ffffffffffffffffffffffffffffffffffffffff1673ffffffffffffffffffffffffffffffffffffffff16610dc39092919063ffffffff16565b6108ec576040517f08c379a00000000000000000000000000000000000000000000000000000000081526004016108e3906119af565b60405180910390fd5b7f000000000000000000000000000000000000000000000000000000000000000073ffffffffffffffffffffffffffffffffffffffff166379cc679033866040518363ffffffff1660e01b81526004016109479291906115ae565b600060405180830381600087803b15801561096157600080fd5b505af1158015610975573d6000803e3d6000fd5b505050507f2aa2935f39d24d5da2fc4140fd94e3b12a7b933688d75d486b50e296d4e60d62868633876040516109ae94939291906119cf565b60405180910390a1505050505050565b7ff1b411d6abb365480ac902cc153c45e9ded5847a2265ce6d01945d253edb6bc781565b600080600084815260200190815260200160002060000160008373ffffffffffffffffffffffffffffffffffffffff1673ffffffffffffffffffffffffffffffffffffffff16815260200190815260200160002060009054906101000a900460ff16905092915050565b6000801b81565b610a5c82610521565b610a6581610b03565b610a6f8383610c10565b50505050565b7f000000000000000000000000000000000000000000000000000000000000000081565b60007f01ffc9a7000000000000000000000000000000000000000000000000000000007bffffffffffffffffffffffffffffffffffffffffffffffffffffffff1916827bffffffffffffffffffffffffffffffffffffffffffffffffffffffff1916149050919050565b610b1481610b0f610c08565b610e06565b50565b6000610b2383836109e2565b610bfd57600160008085815260200190815260200160002060000160008473ffffffffffffffffffffffffffffffffffffffff1673ffffffffffffffffffffffffffffffffffffffff16815260200190815260200160002060006101000a81548160ff021916908315150217905550610b9a610c08565b73ffffffffffffffffffffffffffffffffffffffff168273ffffffffffffffffffffffffffffffffffffffff16847f2f8788117e7eff1d82e926ec794901d17c78024a50270940304540a733656f0d60405160405180910390a460019050610c02565b600090505b92915050565b600033905090565b6000610c1c83836109e2565b15610cf757600080600085815260200190815260200160002060000160008473ffffffffffffffffffffffffffffffffffffffff1673ffffffffffffffffffffffffffffffffffffffff16815260200190815260200160002060006101000a81548160ff021916908315150217905550610c94610c08565b73ffffffffffffffffffffffffffffffffffffffff168273ffffffffffffffffffffffffffffffffffffffff16847ff6391f5c32d9c69d2a47ea670b442974b53935d1edc7fd64eb21e047a839171b60405160405180910390a460019050610cfc565b600090505b92915050565b600260015403610d3e576040517f3ee5aeb500000000000000000000000000000000000000000000000000000000815260040160405180910390fd5b6002600181905550565b60018081905550565b6000806040518060400160405280601c81526020017f19457468657265756d205369676e6564204d6573736167653a0a333200000000815250905060008184604051602001610da1929190611a9b565b6040516020818303038152906040528051906020012090508092505050919050565b6000610dcf8383610e57565b73ffffffffffffffffffffffffffffffffffffffff168473ffffffffffffffffffffffffffffffffffffffff161490509392505050565b610e1082826109e2565b610e535780826040517fe2517d3f000000000000000000000000000000000000000000000000000000008152600401610e4a929190611ac3565b60405180910390fd5b5050565b60006041825114610e6757600080fd5b60008060006020850151915060408501519050606085015160001a925060018684848460405160008152602001604052604051610ea79493929190611b08565b6020604051602081039080840390855afa158015610ec9573d6000803e3d6000fd5b50505060206040510351935050505092915050565b6000604051905090565b600080fd5b600080fd5b60007fffffffff0000000000000000000000000000000000000000000000000000000082169050919050565b610f2781610ef2565b8114610f3257600080fd5b50565b600081359050610f4481610f1e565b92915050565b600060208284031215610f6057610f5f610ee8565b5b6000610f6e84828501610f35565b91505092915050565b60008115159050919050565b610f8c81610f77565b82525050565b6000602082019050610fa76000830184610f83565b92915050565b600080fd5b600080fd5b600080fd5b60008083601f840112610fd257610fd1610fad565b5b8235905067ffffffffffffffff811115610fef57610fee610fb2565b5b60208301915083602082028301111561100b5761100a610fb7565b5b9250929050565b60008083601f84011261102857611027610fad565b5b8235905067ffffffffffffffff81111561104557611044610fb2565b5b60208301915083602082028301111561106157611060610fb7565b5b9250929050565b6000806000806040858703121561108257611081610ee8565b5b600085013567ffffffffffffffff8111156110a05761109f610eed565b5b6110ac87828801610fbc565b9450945050602085013567ffffffffffffffff8111156110cf576110ce610eed565b5b6110db87828801611012565b925092505092959194509250565b6000819050919050565b6110fc816110e9565b811461110757600080fd5b50565b600081359050611119816110f3565b92915050565b60006020828403121561113557611134610ee8565b5b60006111438482850161110a565b91505092915050565b611155816110e9565b82525050565b6000602082019050611170600083018461114c565b92915050565b600073ffffffffffffffffffffffffffffffffffffffff82169050919050565b60006111a182611176565b9050919050565b6111b181611196565b81146111bc57600080fd5b50565b6000813590506111ce816111a8565b92915050565b600080604083850312156111eb576111ea610ee8565b5b60006111f98582860161110a565b925050602061120a858286016111bf565b9150509250929050565b6000819050919050565b61122781611214565b82525050565b6000602082019050611242600083018461121e565b92915050565b60006020828403121561125e5761125d610ee8565b5b600061126c848285016111bf565b91505092915050565b61127e81611214565b811461128957600080fd5b50565b60008135905061129b81611275565b92915050565b600080fd5b6000601f19601f8301169050919050565b7f4e487b7100000000000000000000000000000000000000000000000000000000600052604160045260246000fd5b6112ef826112a6565b810181811067ffffffffffffffff8211171561130e5761130d6112b7565b5b80604052505050565b6000611321610ede565b905061132d82826112e6565b919050565b600067ffffffffffffffff82111561134d5761134c6112b7565b5b611356826112a6565b9050602081019050919050565b82818337600083830152505050565b600061138561138084611332565b611317565b9050828152602081018484840111156113a1576113a06112a1565b5b6113ac848285611363565b509392505050565b600082601f8301126113c9576113c8610fad565b5b81356113d9848260208601611372565b91505092915050565b600080600080600060a086880312156113fe576113fd610ee8565b5b600061140c8882890161128c565b955050602061141d8882890161128c565b945050604061142e8882890161128c565b935050606061143f8882890161128c565b925050608086013567ffffffffffffffff8111156114605761145f610eed565b5b61146c888289016113b4565b9150509295509295909350565b6000819050919050565b600061149e61149961149484611176565b611479565b611176565b9050919050565b60006114b082611483565b9050919050565b60006114c2826114a5565b9050919050565b6114d2816114b7565b82525050565b60006020820190506114ed60008301846114c9565b92915050565b600082825260208201905092915050565b7f496e76616c696420696e707574206172726179206c656e677468000000000000600082015250565b600061153a601a836114f3565b915061154582611504565b602082019050919050565b600060208201905081810360008301526115698161152d565b9050919050565b7f4e487b7100000000000000000000000000000000000000000000000000000000600052603260045260246000fd5b6115a881611196565b82525050565b60006040820190506115c3600083018561159f565b6115d0602083018461121e565b9392505050565b7f4e6f7468696e6720746f20776974686472617700000000000000000000000000600082015250565b600061160d6013836114f3565b9150611618826115d7565b602082019050919050565b6000602082019050818103600083015261163c81611600565b9050919050565b600081905092915050565b50565b600061165e600083611643565b91506116698261164e565b600082019050919050565b600061167f82611651565b9150819050919050565b7f4661696c656420746f2073656e64204574686572000000000000000000000000600082015250565b60006116bf6014836114f3565b91506116ca82611689565b602082019050919050565b600060208201905081810360008301526116ee816116b2565b9050919050565b600060408201905061170a600083018561159f565b611717602083018461159f565b9392505050565b60008151905061172d81611275565b92915050565b60006020828403121561174957611748610ee8565b5b60006117578482850161171e565b91505092915050565b7f4e6f7420616c6c6f77616e636500000000000000000000000000000000000000600082015250565b6000611796600d836114f3565b91506117a182611760565b602082019050919050565b600060208201905081810360008301526117c581611789565b9050919050565b7f4e487b7100000000000000000000000000000000000000000000000000000000600052601160045260246000fd5b600061180682611214565b915061181183611214565b9250828201905080821115611829576118286117cc565b5b92915050565b7f496e76616c69642074696d657374616d70000000000000000000000000000000600082015250565b60006118656011836114f3565b91506118708261182f565b602082019050919050565b6000602082019050818103600083015261189481611858565b9050919050565b60008160601b9050919050565b60006118b38261189b565b9050919050565b60006118c5826118a8565b9050919050565b6118dd6118d882611196565b6118ba565b82525050565b6000819050919050565b6118fe6118f982611214565b6118e3565b82525050565b600061191082886118cc565b60148201915061192082876118ed565b60208201915061193082866118ed565b60208201915061194082856118ed565b60208201915061195082846118ed565b6020820191508190509695505050505050565b7f494e56414c49445f5349474e4154555245000000000000000000000000000000600082015250565b60006119996011836114f3565b91506119a482611963565b602082019050919050565b600060208201905081810360008301526119c88161198c565b9050919050565b60006080820190506119e4600083018761121e565b6119f1602083018661121e565b6119fe604083018561159f565b611a0b606083018461121e565b95945050505050565b600081519050919050565b60005b83811015611a3d578082015181840152602081019050611a22565b60008484015250505050565b6000611a5482611a14565b611a5e8185611643565b9350611a6e818560208601611a1f565b80840191505092915050565b6000819050919050565b611a95611a90826110e9565b611a7a565b82525050565b6000611aa78285611a49565b9150611ab38284611a84565b6020820191508190509392505050565b6000604082019050611ad8600083018561159f565b611ae5602083018461114c565b9392505050565b600060ff82169050919050565b611b0281611aec565b82525050565b6000608082019050611b1d600083018761114c565b611b2a6020830186611af9565b611b37604083018561114c565b611b44606083018461114c565b9594505050505056fea26469706673582212202babd48326e2758ddcc95e5a3f668f7e0f390f97f265e7441ad4102978e4930964736f6c634300081b0033",
  "linkReferences": {},
  "deployedLinkReferences": {}
}