{
  "_format": "hh-sol-artifact-1",
  "contractName": "DollarAuction",
  "sourceName": "contracts/DollarAuction.sol",
  "abi": [
    {
      "inputs": [
        {
          "internalType": "address",
          "name": "_defaultAdmin",
          "type": "address"
        },
        {
          "internalType": "address",
          "name": "_workerAddress",
          "type": "address"
        },
        {
          "internalType": "address",
          "name": "_paradoxTokenAddress",
          "type": "address"
        }
      ],
      "stateMutability": "nonpayable",
      "type": "constructor"
    },
    {
      "inputs": [],
      "name": "AccessControlBadConfirmation",
      "type": "error"
    },
    {
      "inputs": [
        {
          "internalType": "address",
          "name": "account",
          "type": "address"
        },
        {
          "internalType": "bytes32",
          "name": "neededRole",
          "type": "bytes32"
        }
      ],
      "name": "AccessControlUnauthorizedAccount",
      "type": "error"
    },
    {
      "inputs": [],
      "name": "ReentrancyGuardReentrantCall",
      "type": "error"
    },
    {
      "anonymous": false,
      "inputs": [
        {
          "indexed": false,
          "internalType": "address",
          "name": "bidder",
          "type": "address"
        },
        {
          "indexed": false,
          "internalType": "uint256",
          "name": "amount",
          "type": "uint256"
        }
      ],
      "name": "BidCreated",
      "type": "event"
    },
    {
      "anonymous": false,
      "inputs": [
        {
          "indexed": true,
          "internalType": "bytes32",
          "name": "role",
          "type": "bytes32"
        },
        {
          "indexed": true,
          "internalType": "bytes32",
          "name": "previousAdminRole",
          "type": "bytes32"
        },
        {
          "indexed": true,
          "internalType": "bytes32",
          "name": "newAdminRole",
          "type": "bytes32"
        }
      ],
      "name": "RoleAdminChanged",
      "type": "event"
    },
    {
      "anonymous": false,
      "inputs": [
        {
          "indexed": true,
          "internalType": "bytes32",
          "name": "role",
          "type": "bytes32"
        },
        {
          "indexed": true,
          "internalType": "address",
          "name": "account",
          "type": "address"
        },
        {
          "indexed": true,
          "internalType": "address",
          "name": "sender",
          "type": "address"
        }
      ],
      "name": "RoleGranted",
      "type": "event"
    },
    {
      "anonymous": false,
      "inputs": [
        {
          "indexed": true,
          "internalType": "bytes32",
          "name": "role",
          "type": "bytes32"
        },
        {
          "indexed": true,
          "internalType": "address",
          "name": "account",
          "type": "address"
        },
        {
          "indexed": true,
          "internalType": "address",
          "name": "sender",
          "type": "address"
        }
      ],
      "name": "RoleRevoked",
      "type": "event"
    },
    {
      "anonymous": false,
      "inputs": [
        {
          "indexed": false,
          "internalType": "uint256",
          "name": "roundId",
          "type": "uint256"
        },
        {
          "indexed": false,
          "internalType": "uint256",
          "name": "roundPrize",
          "type": "uint256"
        }
      ],
      "name": "RoundCreated",
      "type": "event"
    },
    {
      "anonymous": false,
      "inputs": [
        {
          "indexed": false,
          "internalType": "uint256",
          "name": "roundId",
          "type": "uint256"
        },
        {
          "indexed": false,
          "internalType": "address",
          "name": "winner",
          "type": "address"
        },
        {
          "indexed": false,
          "internalType": "uint256",
          "name": "amount",
          "type": "uint256"
        },
        {
          "indexed": false,
          "internalType": "uint256",
          "name": "prize",
          "type": "uint256"
        }
      ],
      "name": "RoundEnded",
      "type": "event"
    },
    {
      "stateMutability": "payable",
      "type": "fallback"
    },
    {
      "inputs": [],
      "name": "DEFAULT_ADMIN_ROLE",
      "outputs": [
        {
          "internalType": "bytes32",
          "name": "",
          "type": "bytes32"
        }
      ],
      "stateMutability": "view",
      "type": "function"
    },
    {
      "inputs": [],
      "name": "WORKER_ROLE",
      "outputs": [
        {
          "internalType": "bytes32",
          "name": "",
          "type": "bytes32"
        }
      ],
      "stateMutability": "view",
      "type": "function"
    },
    {
      "inputs": [
        {
          "internalType": "uint256",
          "name": "value",
          "type": "uint256"
        }
      ],
      "name": "bid",
      "outputs": [],
      "stateMutability": "nonpayable",
      "type": "function"
    },
    {
      "inputs": [],
      "name": "bidStep",
      "outputs": [
        {
          "internalType": "uint256",
          "name": "",
          "type": "uint256"
        }
      ],
      "stateMutability": "view",
      "type": "function"
    },
    {
      "inputs": [],
      "name": "endRoundAndCreateNewRound",
      "outputs": [],
      "stateMutability": "nonpayable",
      "type": "function"
    },
    {
      "inputs": [
        {
          "internalType": "bytes32",
          "name": "role",
          "type": "bytes32"
        }
      ],
      "name": "getRoleAdmin",
      "outputs": [
        {
          "internalType": "bytes32",
          "name": "",
          "type": "bytes32"
        }
      ],
      "stateMutability": "view",
      "type": "function"
    },
    {
      "inputs": [
        {
          "internalType": "bytes32",
          "name": "role",
          "type": "bytes32"
        },
        {
          "internalType": "address",
          "name": "account",
          "type": "address"
        }
      ],
      "name": "grantRole",
      "outputs": [],
      "stateMutability": "nonpayable",
      "type": "function"
    },
    {
      "inputs": [
        {
          "internalType": "bytes32",
          "name": "role",
          "type": "bytes32"
        },
        {
          "internalType": "address",
          "name": "account",
          "type": "address"
        }
      ],
      "name": "hasRole",
      "outputs": [
        {
          "internalType": "bool",
          "name": "",
          "type": "bool"
        }
      ],
      "stateMutability": "view",
      "type": "function"
    },
    {
      "inputs": [],
      "name": "isActive",
      "outputs": [
        {
          "internalType": "bool",
          "name": "",
          "type": "bool"
        }
      ],
      "stateMutability": "view",
      "type": "function"
    },
    {
      "inputs": [],
      "name": "minRoundDuration",
      "outputs": [
        {
          "internalType": "uint256",
          "name": "",
          "type": "uint256"
        }
      ],
      "stateMutability": "view",
      "type": "function"
    },
    {
      "inputs": [],
      "name": "minRoundPrize",
      "outputs": [
        {
          "internalType": "uint256",
          "name": "",
          "type": "uint256"
        }
      ],
      "stateMutability": "view",
      "type": "function"
    },
    {
      "inputs": [],
      "name": "nextRoundPrize",
      "outputs": [
        {
          "internalType": "uint256",
          "name": "",
          "type": "uint256"
        }
      ],
      "stateMutability": "view",
      "type": "function"
    },
    {
      "inputs": [],
      "name": "nextRoundPrizePercent",
      "outputs": [
        {
          "internalType": "uint256",
          "name": "",
          "type": "uint256"
        }
      ],
      "stateMutability": "view",
      "type": "function"
    },
    {
      "inputs": [
        {
          "internalType": "bytes32",
          "name": "role",
          "type": "bytes32"
        },
        {
          "internalType": "address",
          "name": "callerConfirmation",
          "type": "address"
        }
      ],
      "name": "renounceRole",
      "outputs": [],
      "stateMutability": "nonpayable",
      "type": "function"
    },
    {
      "inputs": [
        {
          "internalType": "bytes32",
          "name": "role",
          "type": "bytes32"
        },
        {
          "internalType": "address",
          "name": "account",
          "type": "address"
        }
      ],
      "name": "revokeRole",
      "outputs": [],
      "stateMutability": "nonpayable",
      "type": "function"
    },
    {
      "inputs": [],
      "name": "roundEndTime",
      "outputs": [
        {
          "internalType": "uint256",
          "name": "",
          "type": "uint256"
        }
      ],
      "stateMutability": "view",
      "type": "function"
    },
    {
      "inputs": [],
      "name": "roundId",
      "outputs": [
        {
          "internalType": "uint256",
          "name": "",
          "type": "uint256"
        }
      ],
      "stateMutability": "view",
      "type": "function"
    },
    {
      "inputs": [],
      "name": "roundMaxBid",
      "outputs": [
        {
          "internalType": "uint256",
          "name": "",
          "type": "uint256"
        }
      ],
      "stateMutability": "view",
      "type": "function"
    },
    {
      "inputs": [],
      "name": "roundPrize",
      "outputs": [
        {
          "internalType": "uint256",
          "name": "",
          "type": "uint256"
        }
      ],
      "stateMutability": "view",
      "type": "function"
    },
    {
      "inputs": [],
      "name": "roundWinner",
      "outputs": [
        {
          "internalType": "address",
          "name": "",
          "type": "address"
        }
      ],
      "stateMutability": "view",
      "type": "function"
    },
    {
      "inputs": [],
      "name": "start",
      "outputs": [],
      "stateMutability": "nonpayable",
      "type": "function"
    },
    {
      "inputs": [
        {
          "internalType": "bytes4",
          "name": "interfaceId",
          "type": "bytes4"
        }
      ],
      "name": "supportsInterface",
      "outputs": [
        {
          "internalType": "bool",
          "name": "",
          "type": "bool"
        }
      ],
      "stateMutability": "view",
      "type": "function"
    },
    {
      "inputs": [],
      "name": "timeStep",
      "outputs": [
        {
          "internalType": "uint256",
          "name": "",
          "type": "uint256"
        }
      ],
      "stateMutability": "view",
      "type": "function"
    },
    {
      "inputs": [],
      "name": "token",
      "outputs": [
        {
          "internalType": "contract Paradox",
          "name": "",
          "type": "address"
        }
      ],
      "stateMutability": "view",
      "type": "function"
    },
    {
      "inputs": [
        {
          "internalType": "uint256",
          "name": "_bidStep",
          "type": "uint256"
        },
        {
          "internalType": "uint256",
          "name": "_timeStep",
          "type": "uint256"
        },
        {
          "internalType": "uint256",
          "name": "_nextRoundPrizePercent",
          "type": "uint256"
        },
        {
          "internalType": "uint256",
          "name": "_minRoundPrize",
          "type": "uint256"
        },
        {
          "internalType": "uint256",
          "name": "_minRoundDuration",
          "type": "uint256"
        }
      ],
      "name": "updateConfig",
      "outputs": [],
      "stateMutability": "nonpayable",
      "type": "function"
    },
    {
      "inputs": [
        {
          "internalType": "address",
          "name": "to",
          "type": "address"
        }
      ],
      "name": "withdraw",
      "outputs": [],
      "stateMutability": "nonpayable",
      "type": "function"
    },
    {
      "stateMutability": "payable",
      "type": "receive"
    }
  ],
  "bytecode": "0x60a060405268056bc75e2d6310000060025560786003556103e860045569010f0cf064dd59200000600555611c2060065534801561003c57600080fd5b50604051612387380380612387833981810160405281019061005e91906102b8565b600180819055506100786000801b846100e660201b60201c565b506100a97ff1b411d6abb365480ac902cc153c45e9ded5847a2265ce6d01945d253edb6bc7836100e660201b60201c565b508073ffffffffffffffffffffffffffffffffffffffff1660808173ffffffffffffffffffffffffffffffffffffffff168152505050505061030b565b60006100f883836101e360201b60201c565b6101d857600160008085815260200190815260200160002060000160008473ffffffffffffffffffffffffffffffffffffffff1673ffffffffffffffffffffffffffffffffffffffff16815260200190815260200160002060006101000a81548160ff02191690831515021790555061017561024d60201b60201c565b73ffffffffffffffffffffffffffffffffffffffff168273ffffffffffffffffffffffffffffffffffffffff16847f2f8788117e7eff1d82e926ec794901d17c78024a50270940304540a733656f0d60405160405180910390a4600190506101dd565b600090505b92915050565b600080600084815260200190815260200160002060000160008373ffffffffffffffffffffffffffffffffffffffff1673ffffffffffffffffffffffffffffffffffffffff16815260200190815260200160002060009054906101000a900460ff16905092915050565b600033905090565b600080fd5b600073ffffffffffffffffffffffffffffffffffffffff82169050919050565b60006102858261025a565b9050919050565b6102958161027a565b81146102a057600080fd5b50565b6000815190506102b28161028c565b92915050565b6000806000606084860312156102d1576102d0610255565b5b60006102df868287016102a3565b93505060206102f0868287016102a3565b9250506040610301868287016102a3565b9150509250925092565b608051612030610357600039600081816107df015281816108bc01528181610ccd01528181610daa01528181610f8a0152818161113d015281816111ef01526112be01526120306000f3fe6080604052600436106101855760003560e01c80638cd221c9116100d1578063be9a65551161008a578063d547741f11610064578063d547741f14610552578063e40205d61461057b578063e9ecc565146105a6578063fc0c546a146105bd57610186565b8063be9a6555146104e5578063bf05a22e146104fc578063d25a05871461052757610186565b80638cd221c9146103d35780638fe42147146103fe57806391d1485414610429578063a217fddf14610466578063a823a60d14610491578063b232c18d146104bc57610186565b806326a46c731161013e578063454a2ab311610118578063454a2ab31461032b57806351cff8d91461035457806360f9d4271461037d578063634252dc146103a857610186565b806326a46c73146102ae5780632f2ff15d146102d957806336568abe1461030257610186565b806301ffc9a7146101885780631502906d146101c557806316ec07f6146101f05780631770e96a1461021b57806322f3e2d414610246578063248a9ca31461027157610186565b5b005b34801561019457600080fd5b506101af60048036038101906101aa9190611646565b6105e8565b6040516101bc919061168e565b60405180910390f35b3480156101d157600080fd5b506101da610662565b6040516101e791906116c2565b60405180910390f35b3480156101fc57600080fd5b50610205610668565b60405161021291906116c2565b60405180910390f35b34801561022757600080fd5b5061023061066e565b60405161023d91906116c2565b60405180910390f35b34801561025257600080fd5b5061025b610674565b604051610268919061168e565b60405180910390f35b34801561027d57600080fd5b5061029860048036038101906102939190611713565b610681565b6040516102a5919061174f565b60405180910390f35b3480156102ba57600080fd5b506102c36106a0565b6040516102d091906116c2565b60405180910390f35b3480156102e557600080fd5b5061030060048036038101906102fb91906117c8565b6106a6565b005b34801561030e57600080fd5b50610329600480360381019061032491906117c8565b6106c8565b005b34801561033757600080fd5b50610352600480360381019061034d9190611834565b610743565b005b34801561036057600080fd5b5061037b60048036038101906103769190611861565b610a20565b005b34801561038957600080fd5b50610392610b37565b60405161039f91906116c2565b60405180910390f35b3480156103b457600080fd5b506103bd610b3d565b6040516103ca919061174f565b60405180910390f35b3480156103df57600080fd5b506103e8610b61565b6040516103f591906116c2565b60405180910390f35b34801561040a57600080fd5b50610413610b67565b60405161042091906116c2565b60405180910390f35b34801561043557600080fd5b50610450600480360381019061044b91906117c8565b610b6d565b60405161045d919061168e565b60405180910390f35b34801561047257600080fd5b5061047b610bd7565b604051610488919061174f565b60405180910390f35b34801561049d57600080fd5b506104a6610bde565b6040516104b3919061189d565b60405180910390f35b3480156104c857600080fd5b506104e360048036038101906104de91906118b8565b610c04565b005b3480156104f157600080fd5b506104fa610c59565b005b34801561050857600080fd5b50610511610e8c565b60405161051e91906116c2565b60405180910390f35b34801561053357600080fd5b5061053c610e92565b60405161054991906116c2565b60405180910390f35b34801561055e57600080fd5b50610579600480360381019061057491906117c8565b610e98565b005b34801561058757600080fd5b50610590610eba565b60405161059d91906116c2565b60405180910390f35b3480156105b257600080fd5b506105bb610ec0565b005b3480156105c957600080fd5b506105d26112bc565b6040516105df9190611992565b60405180910390f35b60007f7965db0b000000000000000000000000000000000000000000000000000000007bffffffffffffffffffffffffffffffffffffffffffffffffffffffff1916827bffffffffffffffffffffffffffffffffffffffffffffffffffffffff1916148061065b575061065a826112e0565b5b9050919050565b60035481565b60025481565b600c5481565b6000600954421115905090565b6000806000838152602001908152602001600020600101549050919050565b60065481565b6106af82610681565b6106b88161134a565b6106c2838361135e565b50505050565b6106d061144f565b73ffffffffffffffffffffffffffffffffffffffff168173ffffffffffffffffffffffffffffffffffffffff1614610734576040517f6697b23200000000000000000000000000000000000000000000000000000000815260040160405180910390fd5b61073e8282611457565b505050565b61074b610674565b61078a576040517f08c379a000000000000000000000000000000000000000000000000000000000815260040161078190611a0a565b60405180910390fd5b600254600a5461079a9190611a59565b8110156107dc576040517f08c379a00000000000000000000000000000000000000000000000000000000081526004016107d390611aff565b60405180910390fd5b807f000000000000000000000000000000000000000000000000000000000000000073ffffffffffffffffffffffffffffffffffffffff1663dd62ed3e33306040518363ffffffff1660e01b8152600401610838929190611b1f565b602060405180830381865afa158015610855573d6000803e3d6000fd5b505050506040513d601f19601f820116820180604052508101906108799190611b5d565b10156108ba576040517f08c379a00000000000000000000000000000000000000000000000000000000081526004016108b190611bd6565b60405180910390fd5b7f000000000000000000000000000000000000000000000000000000000000000073ffffffffffffffffffffffffffffffffffffffff166323b872dd3330846040518463ffffffff1660e01b815260040161091793929190611bf6565b6020604051808303816000875af1158015610936573d6000803e3d6000fd5b505050506040513d601f19601f8201168201806040525081019061095a9190611c59565b5080600a8190555033600b60006101000a81548173ffffffffffffffffffffffffffffffffffffffff021916908373ffffffffffffffffffffffffffffffffffffffff160217905550600354600960008282546109b79190611a59565b92505081905550600454816109cc9190611c86565b600c60008282546109dd9190611a59565b925050819055507fff2d32ce56b0b5d23a2d2e0fa74261ef152c762e716daa7e6eb1cc0fafa0a4e83382604051610a15929190611cc8565b60405180910390a150565b610a28611549565b6000801b610a358161134a565b60004711610a78576040517f08c379a0000000000000000000000000000000000000000000000000000000008152600401610a6f90611d3d565b60405180910390fd5b600082905060008173ffffffffffffffffffffffffffffffffffffffff1647604051610aa390611d8e565b60006040518083038185875af1925050503d8060008114610ae0576040519150601f19603f3d011682016040523d82523d6000602084013e610ae5565b606091505b5050905080610b29576040517f08c379a0000000000000000000000000000000000000000000000000000000008152600401610b2090611def565b60405180910390fd5b505050610b3461158f565b50565b600a5481565b7ff1b411d6abb365480ac902cc153c45e9ded5847a2265ce6d01945d253edb6bc781565b60075481565b60045481565b600080600084815260200190815260200160002060000160008373ffffffffffffffffffffffffffffffffffffffff1673ffffffffffffffffffffffffffffffffffffffff16815260200190815260200160002060009054906101000a900460ff16905092915050565b6000801b81565b600b60009054906101000a900473ffffffffffffffffffffffffffffffffffffffff1681565b7ff1b411d6abb365480ac902cc153c45e9ded5847a2265ce6d01945d253edb6bc7610c2e8161134a565b8560028190555084600381905550836004819055508260058190555081600681905550505050505050565b7ff1b411d6abb365480ac902cc153c45e9ded5847a2265ce6d01945d253edb6bc7610c838161134a565b600060075414610cc8576040517f08c379a0000000000000000000000000000000000000000000000000000000008152600401610cbf90611e5b565b60405180910390fd5b6005547f000000000000000000000000000000000000000000000000000000000000000073ffffffffffffffffffffffffffffffffffffffff1663dd62ed3e33306040518363ffffffff1660e01b8152600401610d26929190611b1f565b602060405180830381865afa158015610d43573d6000803e3d6000fd5b505050506040513d601f19601f82011682018060405250810190610d679190611b5d565b1015610da8576040517f08c379a0000000000000000000000000000000000000000000000000000000008152600401610d9f90611bd6565b60405180910390fd5b7f000000000000000000000000000000000000000000000000000000000000000073ffffffffffffffffffffffffffffffffffffffff166323b872dd33306005546040518463ffffffff1660e01b8152600401610e0793929190611bf6565b6020604051808303816000875af1158015610e26573d6000803e3d6000fd5b505050506040513d601f19601f82011682018060405250810190610e4a9190611c59565b5060076000815480929190610e5e90611e7b565b919050555060055460088190555060065442610e7a9190611a59565b600981905550600554600c8190555050565b60055481565b60085481565b610ea182610681565b610eaa8161134a565b610eb48383611457565b50505050565b60095481565b7ff1b411d6abb365480ac902cc153c45e9ded5847a2265ce6d01945d253edb6bc7610eea8161134a565b610ef2610674565b15610f32576040517f08c379a0000000000000000000000000000000000000000000000000000000008152600401610f2990611f0f565b60405180910390fd5b600073ffffffffffffffffffffffffffffffffffffffff16600b60009054906101000a900473ffffffffffffffffffffffffffffffffffffffff1673ffffffffffffffffffffffffffffffffffffffff161461104c577f000000000000000000000000000000000000000000000000000000000000000073ffffffffffffffffffffffffffffffffffffffff1663a9059cbb600b60009054906101000a900473ffffffffffffffffffffffffffffffffffffffff166005546040518363ffffffff1660e01b8152600401611007929190611cc8565b6020604051808303816000875af1158015611026573d6000803e3d6000fd5b505050506040513d601f19601f8201168201806040525081019061104a9190611c59565b505b7f27204cd9208d6f69d2ec3166c5141707a7e6d8907a43ec5dfd33eb4f4f8ed533600754600b60009054906101000a900473ffffffffffffffffffffffffffffffffffffffff16600a546008546040516110a99493929190611f2f565b60405180910390a1600760008154809291906110c490611e7b565b9190505550600c54600881905550600654426110e09190611a59565b6009819055506000600a819055506000600b60006101000a81548173ffffffffffffffffffffffffffffffffffffffff021916908373ffffffffffffffffffffffffffffffffffffffff160217905550600554600c8190555060007f000000000000000000000000000000000000000000000000000000000000000073ffffffffffffffffffffffffffffffffffffffff166370a08231306040518263ffffffff1660e01b8152600401611194919061189d565b602060405180830381865afa1580156111b1573d6000803e3d6000fd5b505050506040513d601f19601f820116820180604052508101906111d59190611b5d565b600c546111e29190611f74565b9050600081111561127b577f000000000000000000000000000000000000000000000000000000000000000073ffffffffffffffffffffffffffffffffffffffff166340c10f1930836040518363ffffffff1660e01b8152600401611248929190611cc8565b600060405180830381600087803b15801561126257600080fd5b505af1158015611276573d6000803e3d6000fd5b505050505b7fe934619c48e1b0b21b662adf6b7c08ad37e6f0d120f40a505503b4fd3bcfec586007546008546040516112b0929190611fa8565b60405180910390a15050565b7f000000000000000000000000000000000000000000000000000000000000000081565b60007f01ffc9a7000000000000000000000000000000000000000000000000000000007bffffffffffffffffffffffffffffffffffffffffffffffffffffffff1916827bffffffffffffffffffffffffffffffffffffffffffffffffffffffff1916149050919050565b61135b8161135661144f565b611598565b50565b600061136a8383610b6d565b61144457600160008085815260200190815260200160002060000160008473ffffffffffffffffffffffffffffffffffffffff1673ffffffffffffffffffffffffffffffffffffffff16815260200190815260200160002060006101000a81548160ff0219169083151502179055506113e161144f565b73ffffffffffffffffffffffffffffffffffffffff168273ffffffffffffffffffffffffffffffffffffffff16847f2f8788117e7eff1d82e926ec794901d17c78024a50270940304540a733656f0d60405160405180910390a460019050611449565b600090505b92915050565b600033905090565b60006114638383610b6d565b1561153e57600080600085815260200190815260200160002060000160008473ffffffffffffffffffffffffffffffffffffffff1673ffffffffffffffffffffffffffffffffffffffff16815260200190815260200160002060006101000a81548160ff0219169083151502179055506114db61144f565b73ffffffffffffffffffffffffffffffffffffffff168273ffffffffffffffffffffffffffffffffffffffff16847ff6391f5c32d9c69d2a47ea670b442974b53935d1edc7fd64eb21e047a839171b60405160405180910390a460019050611543565b600090505b92915050565b600260015403611585576040517f3ee5aeb500000000000000000000000000000000000000000000000000000000815260040160405180910390fd5b6002600181905550565b60018081905550565b6115a28282610b6d565b6115e55780826040517fe2517d3f0000000000000000000000000000000000000000000000000000000081526004016115dc929190611fd1565b60405180910390fd5b5050565b600080fd5b60007fffffffff0000000000000000000000000000000000000000000000000000000082169050919050565b611623816115ee565b811461162e57600080fd5b50565b6000813590506116408161161a565b92915050565b60006020828403121561165c5761165b6115e9565b5b600061166a84828501611631565b91505092915050565b60008115159050919050565b61168881611673565b82525050565b60006020820190506116a3600083018461167f565b92915050565b6000819050919050565b6116bc816116a9565b82525050565b60006020820190506116d760008301846116b3565b92915050565b6000819050919050565b6116f0816116dd565b81146116fb57600080fd5b50565b60008135905061170d816116e7565b92915050565b600060208284031215611729576117286115e9565b5b6000611737848285016116fe565b91505092915050565b611749816116dd565b82525050565b60006020820190506117646000830184611740565b92915050565b600073ffffffffffffffffffffffffffffffffffffffff82169050919050565b60006117958261176a565b9050919050565b6117a58161178a565b81146117b057600080fd5b50565b6000813590506117c28161179c565b92915050565b600080604083850312156117df576117de6115e9565b5b60006117ed858286016116fe565b92505060206117fe858286016117b3565b9150509250929050565b611811816116a9565b811461181c57600080fd5b50565b60008135905061182e81611808565b92915050565b60006020828403121561184a576118496115e9565b5b60006118588482850161181f565b91505092915050565b600060208284031215611877576118766115e9565b5b6000611885848285016117b3565b91505092915050565b6118978161178a565b82525050565b60006020820190506118b2600083018461188e565b92915050565b600080600080600060a086880312156118d4576118d36115e9565b5b60006118e28882890161181f565b95505060206118f38882890161181f565b94505060406119048882890161181f565b93505060606119158882890161181f565b92505060806119268882890161181f565b9150509295509295909350565b6000819050919050565b600061195861195361194e8461176a565b611933565b61176a565b9050919050565b600061196a8261193d565b9050919050565b600061197c8261195f565b9050919050565b61198c81611971565b82525050565b60006020820190506119a76000830184611983565b92915050565b600082825260208201905092915050565b7f526f756e6420656e646564000000000000000000000000000000000000000000600082015250565b60006119f4600b836119ad565b91506119ff826119be565b602082019050919050565b60006020820190508181036000830152611a23816119e7565b9050919050565b7f4e487b7100000000000000000000000000000000000000000000000000000000600052601160045260246000fd5b6000611a64826116a9565b9150611a6f836116a9565b9250828201905080821115611a8757611a86611a2a565b5b92915050565b7f4d75737420626964206174206c656173742031206269642073746570206d6f7260008201527f65207468616e206d61782062696464696e670000000000000000000000000000602082015250565b6000611ae96032836119ad565b9150611af482611a8d565b604082019050919050565b60006020820190508181036000830152611b1881611adc565b9050919050565b6000604082019050611b34600083018561188e565b611b41602083018461188e565b9392505050565b600081519050611b5781611808565b92915050565b600060208284031215611b7357611b726115e9565b5b6000611b8184828501611b48565b91505092915050565b7f4e6f7420616c6c6f77616e636500000000000000000000000000000000000000600082015250565b6000611bc0600d836119ad565b9150611bcb82611b8a565b602082019050919050565b60006020820190508181036000830152611bef81611bb3565b9050919050565b6000606082019050611c0b600083018661188e565b611c18602083018561188e565b611c2560408301846116b3565b949350505050565b611c3681611673565b8114611c4157600080fd5b50565b600081519050611c5381611c2d565b92915050565b600060208284031215611c6f57611c6e6115e9565b5b6000611c7d84828501611c44565b91505092915050565b6000611c91826116a9565b9150611c9c836116a9565b9250828202611caa816116a9565b91508282048414831517611cc157611cc0611a2a565b5b5092915050565b6000604082019050611cdd600083018561188e565b611cea60208301846116b3565b9392505050565b7f4e6f7468696e6720746f20776974686472617700000000000000000000000000600082015250565b6000611d276013836119ad565b9150611d3282611cf1565b602082019050919050565b60006020820190508181036000830152611d5681611d1a565b9050919050565b600081905092915050565b50565b6000611d78600083611d5d565b9150611d8382611d68565b600082019050919050565b6000611d9982611d6b565b9150819050919050565b7f4661696c656420746f2073656e64204574686572000000000000000000000000600082015250565b6000611dd96014836119ad565b9150611de482611da3565b602082019050919050565b60006020820190508181036000830152611e0881611dcc565b9050919050565b7f436f6e7472616374206973207374617274656400000000000000000000000000600082015250565b6000611e456013836119ad565b9150611e5082611e0f565b602082019050919050565b60006020820190508181036000830152611e7481611e38565b9050919050565b6000611e86826116a9565b91507fffffffffffffffffffffffffffffffffffffffffffffffffffffffffffffffff8203611eb857611eb7611a2a565b5b600182019050919050565b7f526f756e64206973206e6f7420656e6465640000000000000000000000000000600082015250565b6000611ef96012836119ad565b9150611f0482611ec3565b602082019050919050565b60006020820190508181036000830152611f2881611eec565b9050919050565b6000608082019050611f4460008301876116b3565b611f51602083018661188e565b611f5e60408301856116b3565b611f6b60608301846116b3565b95945050505050565b6000611f7f826116a9565b9150611f8a836116a9565b9250828203905081811115611fa257611fa1611a2a565b5b92915050565b6000604082019050611fbd60008301856116b3565b611fca60208301846116b3565b9392505050565b6000604082019050611fe6600083018561188e565b611ff36020830184611740565b939250505056fea2646970667358221220dba48580299122beb0422f45db4afb092dfe49bdd12d9bc55a7f11b6002cb1df64736f6c634300081b0033",
  "linkReferences": {},
  "deployedLinkReferences": {}
}