{
  "_format": "hh-sol-artifact-1",
  "contractName": "DollarAuction",
  "sourceName": "contracts/DollarAuction.sol",
  "abi": [
    {
      "inputs": [
        {
          "internalType": "address",
          "name": "_defaultAdmin",
          "type": "address"
        },
        {
          "internalType": "address",
          "name": "_workerAddress",
          "type": "address"
        },
        {
          "internalType": "address",
          "name": "_paradoxTokenAddress",
          "type": "address"
        }
      ],
      "stateMutability": "nonpayable",
      "type": "constructor"
    },
    {
      "inputs": [],
      "name": "AccessControlBadConfirmation",
      "type": "error"
    },
    {
      "inputs": [
        {
          "internalType": "address",
          "name": "account",
          "type": "address"
        },
        {
          "internalType": "bytes32",
          "name": "neededRole",
          "type": "bytes32"
        }
      ],
      "name": "AccessControlUnauthorizedAccount",
      "type": "error"
    },
    {
      "inputs": [],
      "name": "ReentrancyGuardReentrantCall",
      "type": "error"
    },
    {
      "anonymous": false,
      "inputs": [
        {
          "indexed": false,
          "internalType": "uint256",
          "name": "roundId",
          "type": "uint256"
        },
        {
          "indexed": false,
          "internalType": "address",
          "name": "bidder",
          "type": "address"
        },
        {
          "indexed": false,
          "internalType": "uint256",
          "name": "amount",
          "type": "uint256"
        }
      ],
      "name": "BidCreated",
      "type": "event"
    },
    {
      "anonymous": false,
      "inputs": [
        {
          "indexed": false,
          "internalType": "uint256",
          "name": "roundId",
          "type": "uint256"
        },
        {
          "indexed": false,
          "internalType": "address",
          "name": "to",
          "type": "address"
        },
        {
          "indexed": false,
          "internalType": "uint256",
          "name": "amount",
          "type": "uint256"
        }
      ],
      "name": "Refund",
      "type": "event"
    },
    {
      "anonymous": false,
      "inputs": [
        {
          "indexed": true,
          "internalType": "bytes32",
          "name": "role",
          "type": "bytes32"
        },
        {
          "indexed": true,
          "internalType": "bytes32",
          "name": "previousAdminRole",
          "type": "bytes32"
        },
        {
          "indexed": true,
          "internalType": "bytes32",
          "name": "newAdminRole",
          "type": "bytes32"
        }
      ],
      "name": "RoleAdminChanged",
      "type": "event"
    },
    {
      "anonymous": false,
      "inputs": [
        {
          "indexed": true,
          "internalType": "bytes32",
          "name": "role",
          "type": "bytes32"
        },
        {
          "indexed": true,
          "internalType": "address",
          "name": "account",
          "type": "address"
        },
        {
          "indexed": true,
          "internalType": "address",
          "name": "sender",
          "type": "address"
        }
      ],
      "name": "RoleGranted",
      "type": "event"
    },
    {
      "anonymous": false,
      "inputs": [
        {
          "indexed": true,
          "internalType": "bytes32",
          "name": "role",
          "type": "bytes32"
        },
        {
          "indexed": true,
          "internalType": "address",
          "name": "account",
          "type": "address"
        },
        {
          "indexed": true,
          "internalType": "address",
          "name": "sender",
          "type": "address"
        }
      ],
      "name": "RoleRevoked",
      "type": "event"
    },
    {
      "anonymous": false,
      "inputs": [
        {
          "indexed": false,
          "internalType": "uint256",
          "name": "roundId",
          "type": "uint256"
        },
        {
          "indexed": false,
          "internalType": "uint256",
          "name": "roundPrize",
          "type": "uint256"
        },
        {
          "indexed": false,
          "internalType": "uint256",
          "name": "roundEndTime",
          "type": "uint256"
        }
      ],
      "name": "RoundCreated",
      "type": "event"
    },
    {
      "anonymous": false,
      "inputs": [
        {
          "indexed": false,
          "internalType": "uint256",
          "name": "roundId",
          "type": "uint256"
        },
        {
          "indexed": false,
          "internalType": "address",
          "name": "winner",
          "type": "address"
        },
        {
          "indexed": false,
          "internalType": "uint256",
          "name": "amount",
          "type": "uint256"
        },
        {
          "indexed": false,
          "internalType": "uint256",
          "name": "prize",
          "type": "uint256"
        }
      ],
      "name": "RoundEnded",
      "type": "event"
    },
    {
      "stateMutability": "payable",
      "type": "fallback"
    },
    {
      "inputs": [],
      "name": "DEFAULT_ADMIN_ROLE",
      "outputs": [
        {
          "internalType": "bytes32",
          "name": "",
          "type": "bytes32"
        }
      ],
      "stateMutability": "view",
      "type": "function"
    },
    {
      "inputs": [],
      "name": "WORKER_ROLE",
      "outputs": [
        {
          "internalType": "bytes32",
          "name": "",
          "type": "bytes32"
        }
      ],
      "stateMutability": "view",
      "type": "function"
    },
    {
      "inputs": [
        {
          "internalType": "uint256",
          "name": "value",
          "type": "uint256"
        }
      ],
      "name": "bid",
      "outputs": [],
      "stateMutability": "nonpayable",
      "type": "function"
    },
    {
      "inputs": [],
      "name": "bidStep",
      "outputs": [
        {
          "internalType": "uint256",
          "name": "",
          "type": "uint256"
        }
      ],
      "stateMutability": "view",
      "type": "function"
    },
    {
      "inputs": [],
      "name": "endRoundAndCreateNewRound",
      "outputs": [],
      "stateMutability": "nonpayable",
      "type": "function"
    },
    {
      "inputs": [
        {
          "internalType": "bytes32",
          "name": "role",
          "type": "bytes32"
        }
      ],
      "name": "getRoleAdmin",
      "outputs": [
        {
          "internalType": "bytes32",
          "name": "",
          "type": "bytes32"
        }
      ],
      "stateMutability": "view",
      "type": "function"
    },
    {
      "inputs": [
        {
          "internalType": "bytes32",
          "name": "role",
          "type": "bytes32"
        },
        {
          "internalType": "address",
          "name": "account",
          "type": "address"
        }
      ],
      "name": "grantRole",
      "outputs": [],
      "stateMutability": "nonpayable",
      "type": "function"
    },
    {
      "inputs": [
        {
          "internalType": "bytes32",
          "name": "role",
          "type": "bytes32"
        },
        {
          "internalType": "address",
          "name": "account",
          "type": "address"
        }
      ],
      "name": "hasRole",
      "outputs": [
        {
          "internalType": "bool",
          "name": "",
          "type": "bool"
        }
      ],
      "stateMutability": "view",
      "type": "function"
    },
    {
      "inputs": [],
      "name": "isActive",
      "outputs": [
        {
          "internalType": "bool",
          "name": "",
          "type": "bool"
        }
      ],
      "stateMutability": "view",
      "type": "function"
    },
    {
      "inputs": [],
      "name": "minRoundDuration",
      "outputs": [
        {
          "internalType": "uint256",
          "name": "",
          "type": "uint256"
        }
      ],
      "stateMutability": "view",
      "type": "function"
    },
    {
      "inputs": [],
      "name": "minRoundPrize",
      "outputs": [
        {
          "internalType": "uint256",
          "name": "",
          "type": "uint256"
        }
      ],
      "stateMutability": "view",
      "type": "function"
    },
    {
      "inputs": [],
      "name": "nextRoundPrize",
      "outputs": [
        {
          "internalType": "uint256",
          "name": "",
          "type": "uint256"
        }
      ],
      "stateMutability": "view",
      "type": "function"
    },
    {
      "inputs": [],
      "name": "nextRoundPrizePercent",
      "outputs": [
        {
          "internalType": "uint256",
          "name": "",
          "type": "uint256"
        }
      ],
      "stateMutability": "view",
      "type": "function"
    },
    {
      "inputs": [
        {
          "internalType": "bytes32",
          "name": "role",
          "type": "bytes32"
        },
        {
          "internalType": "address",
          "name": "callerConfirmation",
          "type": "address"
        }
      ],
      "name": "renounceRole",
      "outputs": [],
      "stateMutability": "nonpayable",
      "type": "function"
    },
    {
      "inputs": [
        {
          "internalType": "bytes32",
          "name": "role",
          "type": "bytes32"
        },
        {
          "internalType": "address",
          "name": "account",
          "type": "address"
        }
      ],
      "name": "revokeRole",
      "outputs": [],
      "stateMutability": "nonpayable",
      "type": "function"
    },
    {
      "inputs": [],
      "name": "roundEndTime",
      "outputs": [
        {
          "internalType": "uint256",
          "name": "",
          "type": "uint256"
        }
      ],
      "stateMutability": "view",
      "type": "function"
    },
    {
      "inputs": [],
      "name": "roundId",
      "outputs": [
        {
          "internalType": "uint256",
          "name": "",
          "type": "uint256"
        }
      ],
      "stateMutability": "view",
      "type": "function"
    },
    {
      "inputs": [],
      "name": "roundPrize",
      "outputs": [
        {
          "internalType": "uint256",
          "name": "",
          "type": "uint256"
        }
      ],
      "stateMutability": "view",
      "type": "function"
    },
    {
      "inputs": [],
      "name": "roundSecondBid",
      "outputs": [
        {
          "internalType": "uint256",
          "name": "",
          "type": "uint256"
        }
      ],
      "stateMutability": "view",
      "type": "function"
    },
    {
      "inputs": [],
      "name": "roundSecondPosition",
      "outputs": [
        {
          "internalType": "address",
          "name": "",
          "type": "address"
        }
      ],
      "stateMutability": "view",
      "type": "function"
    },
    {
      "inputs": [],
      "name": "roundWinner",
      "outputs": [
        {
          "internalType": "address",
          "name": "",
          "type": "address"
        }
      ],
      "stateMutability": "view",
      "type": "function"
    },
    {
      "inputs": [],
      "name": "roundWinnerBid",
      "outputs": [
        {
          "internalType": "uint256",
          "name": "",
          "type": "uint256"
        }
      ],
      "stateMutability": "view",
      "type": "function"
    },
    {
      "inputs": [],
      "name": "start",
      "outputs": [],
      "stateMutability": "nonpayable",
      "type": "function"
    },
    {
      "inputs": [
        {
          "internalType": "bytes4",
          "name": "interfaceId",
          "type": "bytes4"
        }
      ],
      "name": "supportsInterface",
      "outputs": [
        {
          "internalType": "bool",
          "name": "",
          "type": "bool"
        }
      ],
      "stateMutability": "view",
      "type": "function"
    },
    {
      "inputs": [],
      "name": "timeStep",
      "outputs": [
        {
          "internalType": "uint256",
          "name": "",
          "type": "uint256"
        }
      ],
      "stateMutability": "view",
      "type": "function"
    },
    {
      "inputs": [],
      "name": "token",
      "outputs": [
        {
          "internalType": "contract Paradox",
          "name": "",
          "type": "address"
        }
      ],
      "stateMutability": "view",
      "type": "function"
    },
    {
      "inputs": [
        {
          "internalType": "uint256",
          "name": "_bidStep",
          "type": "uint256"
        },
        {
          "internalType": "uint256",
          "name": "_timeStep",
          "type": "uint256"
        },
        {
          "internalType": "uint256",
          "name": "_nextRoundPrizePercent",
          "type": "uint256"
        },
        {
          "internalType": "uint256",
          "name": "_minRoundPrize",
          "type": "uint256"
        },
        {
          "internalType": "uint256",
          "name": "_minRoundDuration",
          "type": "uint256"
        }
      ],
      "name": "updateConfig",
      "outputs": [],
      "stateMutability": "nonpayable",
      "type": "function"
    },
    {
      "inputs": [
        {
          "internalType": "address",
          "name": "to",
          "type": "address"
        }
      ],
      "name": "withdraw",
      "outputs": [],
      "stateMutability": "nonpayable",
      "type": "function"
    },
    {
      "stateMutability": "payable",
      "type": "receive"
    }
  ],
  "bytecode": "0x60a0604052683635c9adc5dea0000060025560786003556103e8600455690a968163f0a57b400000600555611c2060065534801561003c57600080fd5b506040516124e23803806124e2833981810160405281019061005e91906102b8565b600180819055506100786000801b846100e660201b60201c565b506100a97ff1b411d6abb365480ac902cc153c45e9ded5847a2265ce6d01945d253edb6bc7836100e660201b60201c565b508073ffffffffffffffffffffffffffffffffffffffff1660808173ffffffffffffffffffffffffffffffffffffffff168152505050505061030b565b60006100f883836101e360201b60201c565b6101d857600160008085815260200190815260200160002060000160008473ffffffffffffffffffffffffffffffffffffffff1673ffffffffffffffffffffffffffffffffffffffff16815260200190815260200160002060006101000a81548160ff02191690831515021790555061017561024d60201b60201c565b73ffffffffffffffffffffffffffffffffffffffff168273ffffffffffffffffffffffffffffffffffffffff16847f2f8788117e7eff1d82e926ec794901d17c78024a50270940304540a733656f0d60405160405180910390a4600190506101dd565b600090505b92915050565b600080600084815260200190815260200160002060000160008373ffffffffffffffffffffffffffffffffffffffff1673ffffffffffffffffffffffffffffffffffffffff16815260200190815260200160002060009054906101000a900460ff16905092915050565b600033905090565b600080fd5b600073ffffffffffffffffffffffffffffffffffffffff82169050919050565b60006102858261025a565b9050919050565b6102958161027a565b81146102a057600080fd5b50565b6000815190506102b28161028c565b92915050565b6000806000606084860312156102d1576102d0610255565b5b60006102df868287016102a3565b93505060206102f0868287016102a3565b9250506040610301868287016102a3565b9150509250925092565b6080516121a0610342600039600081816108fb015281816109d801528181610ae90152818161115a01526113ad01526121a06000f3fe6080604052600436106101bb5760003560e01c80638fe42147116100ec578063d25a05871161008a578063e40205d611610064578063e40205d6146105dc578063e9ecc56514610607578063ea051b511461061e578063fc0c546a14610649576101bc565b8063d25a05871461055d578063d547741f14610588578063dc6676f8146105b1576101bc565b8063a823a60d116100c6578063a823a60d146104c7578063b232c18d146104f2578063be9a65551461051b578063bf05a22e14610532576101bc565b80638fe421471461043457806391d148541461045f578063a217fddf1461049c576101bc565b80632f2ff15d1161015957806351cff8d91161013357806351cff8d91461038a5780635d849a7b146103b3578063634252dc146103de5780638cd221c914610409576101bc565b80632f2ff15d1461030f57806336568abe14610338578063454a2ab314610361576101bc565b80631770e96a116101955780631770e96a1461025157806322f3e2d41461027c578063248a9ca3146102a757806326a46c73146102e4576101bc565b806301ffc9a7146101be5780631502906d146101fb57806316ec07f614610226576101bc565b5b005b3480156101ca57600080fd5b506101e560048036038101906101e09190611735565b610674565b6040516101f2919061177d565b60405180910390f35b34801561020757600080fd5b506102106106ee565b60405161021d91906117b1565b60405180910390f35b34801561023257600080fd5b5061023b6106f4565b60405161024891906117b1565b60405180910390f35b34801561025d57600080fd5b506102666106fa565b60405161027391906117b1565b60405180910390f35b34801561028857600080fd5b50610291610700565b60405161029e919061177d565b60405180910390f35b3480156102b357600080fd5b506102ce60048036038101906102c99190611802565b61070d565b6040516102db919061183e565b60405180910390f35b3480156102f057600080fd5b506102f961072c565b60405161030691906117b1565b60405180910390f35b34801561031b57600080fd5b50610336600480360381019061033191906118b7565b610732565b005b34801561034457600080fd5b5061035f600480360381019061035a91906118b7565b610754565b005b34801561036d57600080fd5b5061038860048036038101906103839190611923565b6107cf565b005b34801561039657600080fd5b506103b160048036038101906103ac9190611950565b610d2c565b005b3480156103bf57600080fd5b506103c8610e43565b6040516103d591906117b1565b60405180910390f35b3480156103ea57600080fd5b506103f3610e49565b604051610400919061183e565b60405180910390f35b34801561041557600080fd5b5061041e610e6d565b60405161042b91906117b1565b60405180910390f35b34801561044057600080fd5b50610449610e73565b60405161045691906117b1565b60405180910390f35b34801561046b57600080fd5b50610486600480360381019061048191906118b7565b610e79565b604051610493919061177d565b60405180910390f35b3480156104a857600080fd5b506104b1610ee3565b6040516104be919061183e565b60405180910390f35b3480156104d357600080fd5b506104dc610eea565b6040516104e9919061198c565b60405180910390f35b3480156104fe57600080fd5b50610519600480360381019061051491906119a7565b610f10565b005b34801561052757600080fd5b50610530610f65565b005b34801561053e57600080fd5b50610547611056565b60405161055491906117b1565b60405180910390f35b34801561056957600080fd5b5061057261105c565b60405161057f91906117b1565b60405180910390f35b34801561059457600080fd5b506105af60048036038101906105aa91906118b7565b611062565b005b3480156105bd57600080fd5b506105c6611084565b6040516105d391906117b1565b60405180910390f35b3480156105e857600080fd5b506105f161108a565b6040516105fe91906117b1565b60405180910390f35b34801561061357600080fd5b5061061c611090565b005b34801561062a57600080fd5b50610633611385565b604051610640919061198c565b60405180910390f35b34801561065557600080fd5b5061065e6113ab565b60405161066b9190611a81565b60405180910390f35b60007f7965db0b000000000000000000000000000000000000000000000000000000007bffffffffffffffffffffffffffffffffffffffffffffffffffffffff1916827bffffffffffffffffffffffffffffffffffffffffffffffffffffffff191614806106e757506106e6826113cf565b5b9050919050565b60035481565b60025481565b600a5481565b6000600954421115905090565b6000806000838152602001908152602001600020600101549050919050565b60065481565b61073b8261070d565b61074481611439565b61074e838361144d565b50505050565b61075c61153e565b73ffffffffffffffffffffffffffffffffffffffff168173ffffffffffffffffffffffffffffffffffffffff16146107c0576040517f6697b23200000000000000000000000000000000000000000000000000000000815260040160405180910390fd5b6107ca8282611546565b505050565b6107d7610700565b610816576040517f08c379a000000000000000000000000000000000000000000000000000000000815260040161080d90611af9565b60405180910390fd5b600c60009054906101000a900473ffffffffffffffffffffffffffffffffffffffff1673ffffffffffffffffffffffffffffffffffffffff163373ffffffffffffffffffffffffffffffffffffffff16036108a6576040517f08c379a000000000000000000000000000000000000000000000000000000000815260040161089d90611b65565b60405180910390fd5b600254600b546108b69190611bb4565b8110156108f8576040517f08c379a00000000000000000000000000000000000000000000000000000000081526004016108ef90611c5a565b60405180910390fd5b807f000000000000000000000000000000000000000000000000000000000000000073ffffffffffffffffffffffffffffffffffffffff1663dd62ed3e33306040518363ffffffff1660e01b8152600401610954929190611c7a565b602060405180830381865afa158015610971573d6000803e3d6000fd5b505050506040513d601f19601f820116820180604052508101906109959190611cb8565b10156109d6576040517f08c379a00000000000000000000000000000000000000000000000000000000081526004016109cd90611d31565b60405180910390fd5b7f000000000000000000000000000000000000000000000000000000000000000073ffffffffffffffffffffffffffffffffffffffff166379cc679033836040518363ffffffff1660e01b8152600401610a31929190611d51565b600060405180830381600087803b158015610a4b57600080fd5b505af1158015610a5f573d6000803e3d6000fd5b50505050600073ffffffffffffffffffffffffffffffffffffffff16600e60009054906101000a900473ffffffffffffffffffffffffffffffffffffffff1673ffffffffffffffffffffffffffffffffffffffff1614610bf7576000612710600454612710610ace9190611d7a565b600d54610adb9190611dae565b610ae59190611e1f565b90507f000000000000000000000000000000000000000000000000000000000000000073ffffffffffffffffffffffffffffffffffffffff166340c10f19600e60009054906101000a900473ffffffffffffffffffffffffffffffffffffffff16836040518363ffffffff1660e01b8152600401610b64929190611d51565b600060405180830381600087803b158015610b7e57600080fd5b505af1158015610b92573d6000803e3d6000fd5b505050507f21e12a7cad0da5928167e1084ea4d5fdf8d9af66657a2543a9ac76a0ca081477600754600e60009054906101000a900473ffffffffffffffffffffffffffffffffffffffff1683604051610bed93929190611e50565b60405180910390a1505b600c60009054906101000a900473ffffffffffffffffffffffffffffffffffffffff16600e60006101000a81548173ffffffffffffffffffffffffffffffffffffffff021916908373ffffffffffffffffffffffffffffffffffffffff160217905550600b54600d8190555033600c60006101000a81548173ffffffffffffffffffffffffffffffffffffffff021916908373ffffffffffffffffffffffffffffffffffffffff16021790555080600b8190555060035460096000828254610cbf9190611bb4565b9250508190555060045481610cd49190611dae565b600a6000828254610ce59190611bb4565b925050819055507f0bda7f7cf42011b27b057b83f3bf21f963b84eb591478e6b413b18d7872cd37a6007543383604051610d2193929190611e50565b60405180910390a150565b610d34611638565b6000801b610d4181611439565b60004711610d84576040517f08c379a0000000000000000000000000000000000000000000000000000000008152600401610d7b90611ed3565b60405180910390fd5b600082905060008173ffffffffffffffffffffffffffffffffffffffff1647604051610daf90611f24565b60006040518083038185875af1925050503d8060008114610dec576040519150601f19603f3d011682016040523d82523d6000602084013e610df1565b606091505b5050905080610e35576040517f08c379a0000000000000000000000000000000000000000000000000000000008152600401610e2c90611f85565b60405180910390fd5b505050610e4061167e565b50565b600d5481565b7ff1b411d6abb365480ac902cc153c45e9ded5847a2265ce6d01945d253edb6bc781565b60075481565b60045481565b600080600084815260200190815260200160002060000160008373ffffffffffffffffffffffffffffffffffffffff1673ffffffffffffffffffffffffffffffffffffffff16815260200190815260200160002060009054906101000a900460ff16905092915050565b6000801b81565b600c60009054906101000a900473ffffffffffffffffffffffffffffffffffffffff1681565b7ff1b411d6abb365480ac902cc153c45e9ded5847a2265ce6d01945d253edb6bc7610f3a81611439565b8560028190555084600381905550836004819055508260058190555081600681905550505050505050565b7ff1b411d6abb365480ac902cc153c45e9ded5847a2265ce6d01945d253edb6bc7610f8f81611439565b600060075414610fd4576040517f08c379a0000000000000000000000000000000000000000000000000000000008152600401610fcb90611ff1565b60405180910390fd5b60076000815480929190610fe790612011565b9190505550600554600881905550600654426110039190611bb4565b600981905550600554600a819055507f68e7b09ec44e876e76ff05157850e3261aa63a8680fe21a2ba93dcbb2b09f58f60075460085460095460405161104b93929190612059565b60405180910390a150565b60055481565b60085481565b61106b8261070d565b61107481611439565b61107e8383611546565b50505050565b600b5481565b60095481565b7ff1b411d6abb365480ac902cc153c45e9ded5847a2265ce6d01945d253edb6bc76110ba81611439565b6110c2610700565b15611102576040517f08c379a00000000000000000000000000000000000000000000000000000000081526004016110f9906120dc565b60405180910390fd5b600073ffffffffffffffffffffffffffffffffffffffff16600c60009054906101000a900473ffffffffffffffffffffffffffffffffffffffff1673ffffffffffffffffffffffffffffffffffffffff161461120a577f000000000000000000000000000000000000000000000000000000000000000073ffffffffffffffffffffffffffffffffffffffff166340c10f19600c60009054906101000a900473ffffffffffffffffffffffffffffffffffffffff166008546040518363ffffffff1660e01b81526004016111d7929190611d51565b600060405180830381600087803b1580156111f157600080fd5b505af1158015611205573d6000803e3d6000fd5b505050505b7f27204cd9208d6f69d2ec3166c5141707a7e6d8907a43ec5dfd33eb4f4f8ed533600754600c60009054906101000a900473ffffffffffffffffffffffffffffffffffffffff16600b5460085460405161126794939291906120fc565b60405180910390a16007600081548092919061128290612011565b9190505550600a546008819055506006544261129e9190611bb4565b6009819055506000600c60006101000a81548173ffffffffffffffffffffffffffffffffffffffff021916908373ffffffffffffffffffffffffffffffffffffffff1602179055506000600b819055506000600e60006101000a81548173ffffffffffffffffffffffffffffffffffffffff021916908373ffffffffffffffffffffffffffffffffffffffff1602179055506000600d81905550600554600a819055507f68e7b09ec44e876e76ff05157850e3261aa63a8680fe21a2ba93dcbb2b09f58f60075460085460095460405161137a93929190612059565b60405180910390a150565b600e60009054906101000a900473ffffffffffffffffffffffffffffffffffffffff1681565b7f000000000000000000000000000000000000000000000000000000000000000081565b60007f01ffc9a7000000000000000000000000000000000000000000000000000000007bffffffffffffffffffffffffffffffffffffffffffffffffffffffff1916827bffffffffffffffffffffffffffffffffffffffffffffffffffffffff1916149050919050565b61144a8161144561153e565b611687565b50565b60006114598383610e79565b61153357600160008085815260200190815260200160002060000160008473ffffffffffffffffffffffffffffffffffffffff1673ffffffffffffffffffffffffffffffffffffffff16815260200190815260200160002060006101000a81548160ff0219169083151502179055506114d061153e565b73ffffffffffffffffffffffffffffffffffffffff168273ffffffffffffffffffffffffffffffffffffffff16847f2f8788117e7eff1d82e926ec794901d17c78024a50270940304540a733656f0d60405160405180910390a460019050611538565b600090505b92915050565b600033905090565b60006115528383610e79565b1561162d57600080600085815260200190815260200160002060000160008473ffffffffffffffffffffffffffffffffffffffff1673ffffffffffffffffffffffffffffffffffffffff16815260200190815260200160002060006101000a81548160ff0219169083151502179055506115ca61153e565b73ffffffffffffffffffffffffffffffffffffffff168273ffffffffffffffffffffffffffffffffffffffff16847ff6391f5c32d9c69d2a47ea670b442974b53935d1edc7fd64eb21e047a839171b60405160405180910390a460019050611632565b600090505b92915050565b600260015403611674576040517f3ee5aeb500000000000000000000000000000000000000000000000000000000815260040160405180910390fd5b6002600181905550565b60018081905550565b6116918282610e79565b6116d45780826040517fe2517d3f0000000000000000000000000000000000000000000000000000000081526004016116cb929190612141565b60405180910390fd5b5050565b600080fd5b60007fffffffff0000000000000000000000000000000000000000000000000000000082169050919050565b611712816116dd565b811461171d57600080fd5b50565b60008135905061172f81611709565b92915050565b60006020828403121561174b5761174a6116d8565b5b600061175984828501611720565b91505092915050565b60008115159050919050565b61177781611762565b82525050565b6000602082019050611792600083018461176e565b92915050565b6000819050919050565b6117ab81611798565b82525050565b60006020820190506117c660008301846117a2565b92915050565b6000819050919050565b6117df816117cc565b81146117ea57600080fd5b50565b6000813590506117fc816117d6565b92915050565b600060208284031215611818576118176116d8565b5b6000611826848285016117ed565b91505092915050565b611838816117cc565b82525050565b6000602082019050611853600083018461182f565b92915050565b600073ffffffffffffffffffffffffffffffffffffffff82169050919050565b600061188482611859565b9050919050565b61189481611879565b811461189f57600080fd5b50565b6000813590506118b18161188b565b92915050565b600080604083850312156118ce576118cd6116d8565b5b60006118dc858286016117ed565b92505060206118ed858286016118a2565b9150509250929050565b61190081611798565b811461190b57600080fd5b50565b60008135905061191d816118f7565b92915050565b600060208284031215611939576119386116d8565b5b60006119478482850161190e565b91505092915050565b600060208284031215611966576119656116d8565b5b6000611974848285016118a2565b91505092915050565b61198681611879565b82525050565b60006020820190506119a1600083018461197d565b92915050565b600080600080600060a086880312156119c3576119c26116d8565b5b60006119d18882890161190e565b95505060206119e28882890161190e565b94505060406119f38882890161190e565b9350506060611a048882890161190e565b9250506080611a158882890161190e565b9150509295509295909350565b6000819050919050565b6000611a47611a42611a3d84611859565b611a22565b611859565b9050919050565b6000611a5982611a2c565b9050919050565b6000611a6b82611a4e565b9050919050565b611a7b81611a60565b82525050565b6000602082019050611a966000830184611a72565b92915050565b600082825260208201905092915050565b7f526f756e6420656e646564000000000000000000000000000000000000000000600082015250565b6000611ae3600b83611a9c565b9150611aee82611aad565b602082019050919050565b60006020820190508181036000830152611b1281611ad6565b9050919050565b7f43616e6e6f742074616b65206f76657220796f757273656c6600000000000000600082015250565b6000611b4f601983611a9c565b9150611b5a82611b19565b602082019050919050565b60006020820190508181036000830152611b7e81611b42565b9050919050565b7f4e487b7100000000000000000000000000000000000000000000000000000000600052601160045260246000fd5b6000611bbf82611798565b9150611bca83611798565b9250828201905080821115611be257611be1611b85565b5b92915050565b7f4d75737420626964206174206c656173742031206269642073746570206d6f7260008201527f65207468616e206d61782062696464696e670000000000000000000000000000602082015250565b6000611c44603283611a9c565b9150611c4f82611be8565b604082019050919050565b60006020820190508181036000830152611c7381611c37565b9050919050565b6000604082019050611c8f600083018561197d565b611c9c602083018461197d565b9392505050565b600081519050611cb2816118f7565b92915050565b600060208284031215611cce57611ccd6116d8565b5b6000611cdc84828501611ca3565b91505092915050565b7f4e6f7420616c6c6f77616e636500000000000000000000000000000000000000600082015250565b6000611d1b600d83611a9c565b9150611d2682611ce5565b602082019050919050565b60006020820190508181036000830152611d4a81611d0e565b9050919050565b6000604082019050611d66600083018561197d565b611d7360208301846117a2565b9392505050565b6000611d8582611798565b9150611d9083611798565b9250828203905081811115611da857611da7611b85565b5b92915050565b6000611db982611798565b9150611dc483611798565b9250828202611dd281611798565b91508282048414831517611de957611de8611b85565b5b5092915050565b7f4e487b7100000000000000000000000000000000000000000000000000000000600052601260045260246000fd5b6000611e2a82611798565b9150611e3583611798565b925082611e4557611e44611df0565b5b828204905092915050565b6000606082019050611e6560008301866117a2565b611e72602083018561197d565b611e7f60408301846117a2565b949350505050565b7f4e6f7468696e6720746f20776974686472617700000000000000000000000000600082015250565b6000611ebd601383611a9c565b9150611ec882611e87565b602082019050919050565b60006020820190508181036000830152611eec81611eb0565b9050919050565b600081905092915050565b50565b6000611f0e600083611ef3565b9150611f1982611efe565b600082019050919050565b6000611f2f82611f01565b9150819050919050565b7f4661696c656420746f2073656e64204574686572000000000000000000000000600082015250565b6000611f6f601483611a9c565b9150611f7a82611f39565b602082019050919050565b60006020820190508181036000830152611f9e81611f62565b9050919050565b7f436f6e7472616374206973207374617274656400000000000000000000000000600082015250565b6000611fdb601383611a9c565b9150611fe682611fa5565b602082019050919050565b6000602082019050818103600083015261200a81611fce565b9050919050565b600061201c82611798565b91507fffffffffffffffffffffffffffffffffffffffffffffffffffffffffffffffff820361204e5761204d611b85565b5b600182019050919050565b600060608201905061206e60008301866117a2565b61207b60208301856117a2565b61208860408301846117a2565b949350505050565b7f526f756e64206973206e6f7420656e6465640000000000000000000000000000600082015250565b60006120c6601283611a9c565b91506120d182612090565b602082019050919050565b600060208201905081810360008301526120f5816120b9565b9050919050565b600060808201905061211160008301876117a2565b61211e602083018661197d565b61212b60408301856117a2565b61213860608301846117a2565b95945050505050565b6000604082019050612156600083018561197d565b612163602083018461182f565b939250505056fea2646970667358221220ca528fb8ee01791c679affb5644d93bc104134a84d2586f0ed8c087549a870ce64736f6c634300081b0033",
  "linkReferences": {},
  "deployedLinkReferences": {}
}