{
  "_format": "hh-sol-artifact-1",
  "contractName": "RapidWin",
  "sourceName": "contracts/RapidWin.sol",
  "abi": [
    {
      "inputs": [
        {
          "internalType": "address",
          "name": "_defaultAdmin",
          "type": "address"
        },
        {
          "internalType": "address",
          "name": "_workerAddress",
          "type": "address"
        }
      ],
      "stateMutability": "nonpayable",
      "type": "constructor"
    },
    {
      "inputs": [],
      "name": "AccessControlBadConfirmation",
      "type": "error"
    },
    {
      "inputs": [
        {
          "internalType": "address",
          "name": "account",
          "type": "address"
        },
        {
          "internalType": "bytes32",
          "name": "neededRole",
          "type": "bytes32"
        }
      ],
      "name": "AccessControlUnauthorizedAccount",
      "type": "error"
    },
    {
      "inputs": [],
      "name": "ReentrancyGuardReentrantCall",
      "type": "error"
    },
    {
      "anonymous": false,
      "inputs": [
        {
          "indexed": true,
          "internalType": "bytes32",
          "name": "role",
          "type": "bytes32"
        },
        {
          "indexed": true,
          "internalType": "bytes32",
          "name": "previousAdminRole",
          "type": "bytes32"
        },
        {
          "indexed": true,
          "internalType": "bytes32",
          "name": "newAdminRole",
          "type": "bytes32"
        }
      ],
      "name": "RoleAdminChanged",
      "type": "event"
    },
    {
      "anonymous": false,
      "inputs": [
        {
          "indexed": true,
          "internalType": "bytes32",
          "name": "role",
          "type": "bytes32"
        },
        {
          "indexed": true,
          "internalType": "address",
          "name": "account",
          "type": "address"
        },
        {
          "indexed": true,
          "internalType": "address",
          "name": "sender",
          "type": "address"
        }
      ],
      "name": "RoleGranted",
      "type": "event"
    },
    {
      "anonymous": false,
      "inputs": [
        {
          "indexed": true,
          "internalType": "bytes32",
          "name": "role",
          "type": "bytes32"
        },
        {
          "indexed": true,
          "internalType": "address",
          "name": "account",
          "type": "address"
        },
        {
          "indexed": true,
          "internalType": "address",
          "name": "sender",
          "type": "address"
        }
      ],
      "name": "RoleRevoked",
      "type": "event"
    },
    {
      "anonymous": false,
      "inputs": [
        {
          "indexed": false,
          "internalType": "address",
          "name": "addr",
          "type": "address"
        },
        {
          "indexed": false,
          "internalType": "bytes",
          "name": "planId",
          "type": "bytes"
        }
      ],
      "name": "Subscribed",
      "type": "event"
    },
    {
      "stateMutability": "payable",
      "type": "fallback"
    },
    {
      "inputs": [],
      "name": "DEFAULT_ADMIN_ROLE",
      "outputs": [
        {
          "internalType": "bytes32",
          "name": "",
          "type": "bytes32"
        }
      ],
      "stateMutability": "view",
      "type": "function"
    },
    {
      "inputs": [],
      "name": "WORKER_ROLE",
      "outputs": [
        {
          "internalType": "bytes32",
          "name": "",
          "type": "bytes32"
        }
      ],
      "stateMutability": "view",
      "type": "function"
    },
    {
      "inputs": [
        {
          "internalType": "bytes32",
          "name": "role",
          "type": "bytes32"
        }
      ],
      "name": "getRoleAdmin",
      "outputs": [
        {
          "internalType": "bytes32",
          "name": "",
          "type": "bytes32"
        }
      ],
      "stateMutability": "view",
      "type": "function"
    },
    {
      "inputs": [
        {
          "internalType": "bytes32",
          "name": "role",
          "type": "bytes32"
        },
        {
          "internalType": "address",
          "name": "account",
          "type": "address"
        }
      ],
      "name": "grantRole",
      "outputs": [],
      "stateMutability": "nonpayable",
      "type": "function"
    },
    {
      "inputs": [
        {
          "internalType": "bytes32",
          "name": "role",
          "type": "bytes32"
        },
        {
          "internalType": "address",
          "name": "account",
          "type": "address"
        }
      ],
      "name": "hasRole",
      "outputs": [
        {
          "internalType": "bool",
          "name": "",
          "type": "bool"
        }
      ],
      "stateMutability": "view",
      "type": "function"
    },
    {
      "inputs": [
        {
          "internalType": "bytes",
          "name": "",
          "type": "bytes"
        }
      ],
      "name": "planPrices",
      "outputs": [
        {
          "internalType": "uint256",
          "name": "",
          "type": "uint256"
        }
      ],
      "stateMutability": "view",
      "type": "function"
    },
    {
      "inputs": [
        {
          "internalType": "bytes32",
          "name": "role",
          "type": "bytes32"
        },
        {
          "internalType": "address",
          "name": "callerConfirmation",
          "type": "address"
        }
      ],
      "name": "renounceRole",
      "outputs": [],
      "stateMutability": "nonpayable",
      "type": "function"
    },
    {
      "inputs": [
        {
          "internalType": "bytes32",
          "name": "role",
          "type": "bytes32"
        },
        {
          "internalType": "address",
          "name": "account",
          "type": "address"
        }
      ],
      "name": "revokeRole",
      "outputs": [],
      "stateMutability": "nonpayable",
      "type": "function"
    },
    {
      "inputs": [
        {
          "internalType": "address[]",
          "name": "winners",
          "type": "address[]"
        },
        {
          "internalType": "uint256[]",
          "name": "rewards",
          "type": "uint256[]"
        }
      ],
      "name": "sendRewards",
      "outputs": [],
      "stateMutability": "nonpayable",
      "type": "function"
    },
    {
      "inputs": [
        {
          "internalType": "bytes",
          "name": "planId",
          "type": "bytes"
        }
      ],
      "name": "subscribe",
      "outputs": [],
      "stateMutability": "payable",
      "type": "function"
    },
    {
      "inputs": [
        {
          "internalType": "bytes4",
          "name": "interfaceId",
          "type": "bytes4"
        }
      ],
      "name": "supportsInterface",
      "outputs": [
        {
          "internalType": "bool",
          "name": "",
          "type": "bool"
        }
      ],
      "stateMutability": "view",
      "type": "function"
    },
    {
      "inputs": [
        {
          "internalType": "bytes[]",
          "name": "planIds",
          "type": "bytes[]"
        },
        {
          "internalType": "uint256[]",
          "name": "prices",
          "type": "uint256[]"
        }
      ],
      "name": "updatePrice",
      "outputs": [],
      "stateMutability": "nonpayable",
      "type": "function"
    },
    {
      "inputs": [
        {
          "internalType": "address",
          "name": "to",
          "type": "address"
        }
      ],
      "name": "withdraw",
      "outputs": [],
      "stateMutability": "nonpayable",
      "type": "function"
    },
    {
      "stateMutability": "payable",
      "type": "receive"
    }
  ],
  "bytecode": "0x608060405234801561001057600080fd5b506040516119f73803806119f783398181016040528101906100329190610257565b6001808190555061004c6000801b8361008560201b60201c565b5061007d7ff1b411d6abb365480ac902cc153c45e9ded5847a2265ce6d01945d253edb6bc78261008560201b60201c565b505050610297565b6000610097838361018260201b60201c565b61017757600160008085815260200190815260200160002060000160008473ffffffffffffffffffffffffffffffffffffffff1673ffffffffffffffffffffffffffffffffffffffff16815260200190815260200160002060006101000a81548160ff0219169083151502179055506101146101ec60201b60201c565b73ffffffffffffffffffffffffffffffffffffffff168273ffffffffffffffffffffffffffffffffffffffff16847f2f8788117e7eff1d82e926ec794901d17c78024a50270940304540a733656f0d60405160405180910390a46001905061017c565b600090505b92915050565b600080600084815260200190815260200160002060000160008373ffffffffffffffffffffffffffffffffffffffff1673ffffffffffffffffffffffffffffffffffffffff16815260200190815260200160002060009054906101000a900460ff16905092915050565b600033905090565b600080fd5b600073ffffffffffffffffffffffffffffffffffffffff82169050919050565b6000610224826101f9565b9050919050565b61023481610219565b811461023f57600080fd5b50565b6000815190506102518161022b565b92915050565b6000806040838503121561026e5761026d6101f4565b5b600061027c85828601610242565b925050602061028d85828601610242565b9150509250929050565b611751806102a66000396000f3fe6080604052600436106100c65760003560e01c80634610b70a1161007f578063634252dc11610059578063634252dc1461026957806391d1485414610294578063a217fddf146102d1578063d547741f146102fc576100c7565b80634610b70a146101e757806351cff8d914610203578063531c03851461022c576100c7565b806301ffc9a7146100c957806320c6737714610106578063224a59641461012f578063248a9ca3146101585780632f2ff15d1461019557806336568abe146101be576100c7565b5b005b3480156100d557600080fd5b506100f060048036038101906100eb9190610cf2565b610325565b6040516100fd9190610d3a565b60405180910390f35b34801561011257600080fd5b5061012d60048036038101906101289190610e10565b61039f565b005b34801561013b57600080fd5b5061015660048036038101906101519190610ee7565b610478565b005b34801561016457600080fd5b5061017f600480360381019061017a9190610f9e565b610623565b60405161018c9190610fda565b60405180910390f35b3480156101a157600080fd5b506101bc60048036038101906101b79190611053565b610642565b005b3480156101ca57600080fd5b506101e560048036038101906101e09190611053565b610664565b005b61020160048036038101906101fc91906110e9565b6106df565b005b34801561020f57600080fd5b5061022a60048036038101906102259190611136565b610781565b005b34801561023857600080fd5b50610253600480360381019061024e91906112a4565b610898565b6040516102609190611306565b60405180910390f35b34801561027557600080fd5b5061027e6108c6565b60405161028b9190610fda565b60405180910390f35b3480156102a057600080fd5b506102bb60048036038101906102b69190611053565b6108ea565b6040516102c89190610d3a565b60405180910390f35b3480156102dd57600080fd5b506102e6610954565b6040516102f39190610fda565b60405180910390f35b34801561030857600080fd5b50610323600480360381019061031e9190611053565b61095b565b005b60007f7965db0b000000000000000000000000000000000000000000000000000000007bffffffffffffffffffffffffffffffffffffffffffffffffffffffff1916827bffffffffffffffffffffffffffffffffffffffffffffffffffffffff1916148061039857506103978261097d565b5b9050919050565b6000801b6103ac816109e7565b8282905085859050146103f4576040517f08c379a00000000000000000000000000000000000000000000000000000000081526004016103eb9061137e565b60405180910390fd5b60005b85859050811015610470578383828181106104155761041461139e565b5b9050602002013560028787848181106104315761043061139e565b5b905060200281019061044391906113dc565b60405161045192919061146f565b90815260200160405180910390208190555080806001019150506103f7565b505050505050565b7ff1b411d6abb365480ac902cc153c45e9ded5847a2265ce6d01945d253edb6bc76104a2816109e7565b8282905085859050146104ea576040517f08c379a00000000000000000000000000000000000000000000000000000000081526004016104e1906114d4565b60405180910390fd5b60005b8585905081101561061b57600084848381811061050d5761050c61139e565b5b90506020020135111561060e57600086868381811061052f5761052e61139e565b5b90506020020160208101906105449190611136565b905060008173ffffffffffffffffffffffffffffffffffffffff168686858181106105725761057161139e565b5b905060200201356040516105859061151a565b60006040518083038185875af1925050503d80600081146105c2576040519150601f19603f3d011682016040523d82523d6000602084013e6105c7565b606091505b505090508061060b576040517f08c379a00000000000000000000000000000000000000000000000000000000081526004016106029061157b565b60405180910390fd5b50505b80806001019150506104ed565b505050505050565b6000806000838152602001908152602001600020600101549050919050565b61064b82610623565b610654816109e7565b61065e83836109fb565b50505050565b61066c610aec565b73ffffffffffffffffffffffffffffffffffffffff168173ffffffffffffffffffffffffffffffffffffffff16146106d0576040517f6697b23200000000000000000000000000000000000000000000000000000000815260040160405180910390fd5b6106da8282610af4565b505050565b600282826040516106f192919061146f565b908152602001604051809103902054341015610742576040517f08c379a0000000000000000000000000000000000000000000000000000000008152600401610739906115e7565b60405180910390fd5b7f3511e61079220d13fd05d48b5150f0ce1cd3b0e2b00e878191451e8d3e18fd5033838360405161077593929190611654565b60405180910390a15050565b610789610be6565b6000801b610796816109e7565b600047116107d9576040517f08c379a00000000000000000000000000000000000000000000000000000000081526004016107d0906116d2565b60405180910390fd5b600082905060008173ffffffffffffffffffffffffffffffffffffffff16476040516108049061151a565b60006040518083038185875af1925050503d8060008114610841576040519150601f19603f3d011682016040523d82523d6000602084013e610846565b606091505b505090508061088a576040517f08c379a00000000000000000000000000000000000000000000000000000000081526004016108819061157b565b60405180910390fd5b505050610895610c2c565b50565b6002818051602081018201805184825260208301602085012081835280955050505050506000915090505481565b7ff1b411d6abb365480ac902cc153c45e9ded5847a2265ce6d01945d253edb6bc781565b600080600084815260200190815260200160002060000160008373ffffffffffffffffffffffffffffffffffffffff1673ffffffffffffffffffffffffffffffffffffffff16815260200190815260200160002060009054906101000a900460ff16905092915050565b6000801b81565b61096482610623565b61096d816109e7565b6109778383610af4565b50505050565b60007f01ffc9a7000000000000000000000000000000000000000000000000000000007bffffffffffffffffffffffffffffffffffffffffffffffffffffffff1916827bffffffffffffffffffffffffffffffffffffffffffffffffffffffff1916149050919050565b6109f8816109f3610aec565b610c35565b50565b6000610a0783836108ea565b610ae157600160008085815260200190815260200160002060000160008473ffffffffffffffffffffffffffffffffffffffff1673ffffffffffffffffffffffffffffffffffffffff16815260200190815260200160002060006101000a81548160ff021916908315150217905550610a7e610aec565b73ffffffffffffffffffffffffffffffffffffffff168273ffffffffffffffffffffffffffffffffffffffff16847f2f8788117e7eff1d82e926ec794901d17c78024a50270940304540a733656f0d60405160405180910390a460019050610ae6565b600090505b92915050565b600033905090565b6000610b0083836108ea565b15610bdb57600080600085815260200190815260200160002060000160008473ffffffffffffffffffffffffffffffffffffffff1673ffffffffffffffffffffffffffffffffffffffff16815260200190815260200160002060006101000a81548160ff021916908315150217905550610b78610aec565b73ffffffffffffffffffffffffffffffffffffffff168273ffffffffffffffffffffffffffffffffffffffff16847ff6391f5c32d9c69d2a47ea670b442974b53935d1edc7fd64eb21e047a839171b60405160405180910390a460019050610be0565b600090505b92915050565b600260015403610c22576040517f3ee5aeb500000000000000000000000000000000000000000000000000000000815260040160405180910390fd5b6002600181905550565b60018081905550565b610c3f82826108ea565b610c825780826040517fe2517d3f000000000000000000000000000000000000000000000000000000008152600401610c799291906116f2565b60405180910390fd5b5050565b6000604051905090565b600080fd5b600080fd5b60007fffffffff0000000000000000000000000000000000000000000000000000000082169050919050565b610ccf81610c9a565b8114610cda57600080fd5b50565b600081359050610cec81610cc6565b92915050565b600060208284031215610d0857610d07610c90565b5b6000610d1684828501610cdd565b91505092915050565b60008115159050919050565b610d3481610d1f565b82525050565b6000602082019050610d4f6000830184610d2b565b92915050565b600080fd5b600080fd5b600080fd5b60008083601f840112610d7a57610d79610d55565b5b8235905067ffffffffffffffff811115610d9757610d96610d5a565b5b602083019150836020820283011115610db357610db2610d5f565b5b9250929050565b60008083601f840112610dd057610dcf610d55565b5b8235905067ffffffffffffffff811115610ded57610dec610d5a565b5b602083019150836020820283011115610e0957610e08610d5f565b5b9250929050565b60008060008060408587031215610e2a57610e29610c90565b5b600085013567ffffffffffffffff811115610e4857610e47610c95565b5b610e5487828801610d64565b9450945050602085013567ffffffffffffffff811115610e7757610e76610c95565b5b610e8387828801610dba565b925092505092959194509250565b60008083601f840112610ea757610ea6610d55565b5b8235905067ffffffffffffffff811115610ec457610ec3610d5a565b5b602083019150836020820283011115610ee057610edf610d5f565b5b9250929050565b60008060008060408587031215610f0157610f00610c90565b5b600085013567ffffffffffffffff811115610f1f57610f1e610c95565b5b610f2b87828801610e91565b9450945050602085013567ffffffffffffffff811115610f4e57610f4d610c95565b5b610f5a87828801610dba565b925092505092959194509250565b6000819050919050565b610f7b81610f68565b8114610f8657600080fd5b50565b600081359050610f9881610f72565b92915050565b600060208284031215610fb457610fb3610c90565b5b6000610fc284828501610f89565b91505092915050565b610fd481610f68565b82525050565b6000602082019050610fef6000830184610fcb565b92915050565b600073ffffffffffffffffffffffffffffffffffffffff82169050919050565b600061102082610ff5565b9050919050565b61103081611015565b811461103b57600080fd5b50565b60008135905061104d81611027565b92915050565b6000806040838503121561106a57611069610c90565b5b600061107885828601610f89565b92505060206110898582860161103e565b9150509250929050565b60008083601f8401126110a9576110a8610d55565b5b8235905067ffffffffffffffff8111156110c6576110c5610d5a565b5b6020830191508360018202830111156110e2576110e1610d5f565b5b9250929050565b60008060208385031215611100576110ff610c90565b5b600083013567ffffffffffffffff81111561111e5761111d610c95565b5b61112a85828601611093565b92509250509250929050565b60006020828403121561114c5761114b610c90565b5b600061115a8482850161103e565b91505092915050565b600080fd5b6000601f19601f8301169050919050565b7f4e487b7100000000000000000000000000000000000000000000000000000000600052604160045260246000fd5b6111b182611168565b810181811067ffffffffffffffff821117156111d0576111cf611179565b5b80604052505050565b60006111e3610c86565b90506111ef82826111a8565b919050565b600067ffffffffffffffff82111561120f5761120e611179565b5b61121882611168565b9050602081019050919050565b82818337600083830152505050565b6000611247611242846111f4565b6111d9565b90508281526020810184848401111561126357611262611163565b5b61126e848285611225565b509392505050565b600082601f83011261128b5761128a610d55565b5b813561129b848260208601611234565b91505092915050565b6000602082840312156112ba576112b9610c90565b5b600082013567ffffffffffffffff8111156112d8576112d7610c95565b5b6112e484828501611276565b91505092915050565b6000819050919050565b611300816112ed565b82525050565b600060208201905061131b60008301846112f7565b92915050565b600082825260208201905092915050565b7f496e76616c6964206172726179206c656e677468000000000000000000000000600082015250565b6000611368601483611321565b915061137382611332565b602082019050919050565b600060208201905081810360008301526113978161135b565b9050919050565b7f4e487b7100000000000000000000000000000000000000000000000000000000600052603260045260246000fd5b600080fd5b600080fd5b600080fd5b600080833560016020038436030381126113f9576113f86113cd565b5b80840192508235915067ffffffffffffffff82111561141b5761141a6113d2565b5b602083019250600182023603831315611437576114366113d7565b5b509250929050565b600081905092915050565b6000611456838561143f565b9350611463838584611225565b82840190509392505050565b600061147c82848661144a565b91508190509392505050565b7f496e76616c696420696e707574206172726179206c656e677468000000000000600082015250565b60006114be601a83611321565b91506114c982611488565b602082019050919050565b600060208201905081810360008301526114ed816114b1565b9050919050565b50565b600061150460008361143f565b915061150f826114f4565b600082019050919050565b6000611525826114f7565b9150819050919050565b7f4661696c656420746f2073656e64204574686572000000000000000000000000600082015250565b6000611565601483611321565b91506115708261152f565b602082019050919050565b6000602082019050818103600083015261159481611558565b9050919050565b7f496e73756666696369656e742045544800000000000000000000000000000000600082015250565b60006115d1601083611321565b91506115dc8261159b565b602082019050919050565b60006020820190508181036000830152611600816115c4565b9050919050565b61161081611015565b82525050565b600082825260208201905092915050565b60006116338385611616565b9350611640838584611225565b61164983611168565b840190509392505050565b60006040820190506116696000830186611607565b818103602083015261167c818486611627565b9050949350505050565b7f4e6f7468696e6720746f20776974686472617700000000000000000000000000600082015250565b60006116bc601383611321565b91506116c782611686565b602082019050919050565b600060208201905081810360008301526116eb816116af565b9050919050565b60006040820190506117076000830185611607565b6117146020830184610fcb565b939250505056fea26469706673582212201cb819c01e2e3bc75b588ecf7a24b4a9ff0fbbe79f1042ad12df3319aed3917664736f6c634300081b0033",
  "linkReferences": {},
  "deployedLinkReferences": {}
}